:020000040800F2
:100000006811002001010008D319000843190008F5
:10001000D1190008C3010008052D000800000000E8
:10002000000000000000000000000000B91A0008F5
:100030003502000800000000F9190008BB1A00088A
:100040001B0100081B0100081B0100081B01000820
:100050001B0100081B0100081B0100081B01000810
:10006000370200081B0100081B0100081B010008E3
:100070001B0100081B0100081B0100081B010008F0
:100080001B0100081B0100081B0100081B010008E0
:100090009D2C00081B0100081B0100081B01000823
:1000A0001B010008691B00081B0100081B01000858
:1000B0001B0100081B0100081B0100081B010008B0
:1000C0001B0100081B0100081B0100081B010008A0
:1000D0001B0100081B0100081B0100081B01000890
:1000E0001B0100081B0100081B010008DFF80CD0F1
:1000F00000F02AF800480047092D00086811002088
:100100000648804706480047FEE7FEE7FEE7FEE7B1
:10011000FEE7FEE7FEE7FEE7FEE7FEE71D1B000841
:10012000ED00000840EA01039B0703D009E008C97D
:10013000121F08C0042AFAD203E011F8013B00F8AC
:10014000013B521EF9D27047064C074D06E0E068AD
:1001500040F0010394E8070098471034AC42F6D30E
:10016000FFF7C8FF042F0008242F000870B58C1873
:1001700010F8015B15F0070301D110F8013B2A11BB
:1001800006D110F8012B03E010F8016B01F8016BA8
:100190005B1EF9D12B0705D40023521E0DD401F8A4
:1001A000013BFAE710F8013BCB1A921C03E013F86D
:1001B000015B01F8015B521EF9D5A142D8D30020A2
:1001C00070BDFEE70020704700207047B0B5074CB7
:1001D000174D002204F12001284601F0EBFD2846CE
:1001E000214601F0E1FD0020B0BD00BFE00100208C
:1001F00010B50F4C0146204601F0D6FD204601F017
:10020000B8FD002010BD00BF0A4601460848D0F8DE
:100210001802D0F8140208B10120704710B5044C40
:10022000204601F0C7FD2046BDE8104001F002BEA7
:10023000440600207047042000F00AB87047000010
:1002400002484168816001210170704798010020D7
:1002500003490A68024214BF08607047FFF7F0BF05
:10026000140401402DE9FC4F594A04234FF0000BC0
:100270004FF001084FF00F0E4FF00009002590429B
:1002800008BF03230093102D08BFBDE8FC8F0A6848
:1002900008FA05F73A4200F096804A68032A16D910
:1002A000112A24D0122A26D04C4B9A4213D04C4B00
:1002B0009A4210D04B4B9A420DD04B4B9A420AD0E7
:1002C0004A4B9A4207D04A4B9A4204D020E0DFE8DA
:1002D00002F00216191D8A6832B1012A14BF476163
:1002E00007614FF0080913E04FF0040910E0CA68F5
:1002F00002F104090CE0CA6802F10C0908E0D1F827
:100300000C9005E0CA6802F1080901E04FF000090D
:100310005A460446082D28BF203A28BF04342668D0
:100320000EFA02F309FA02F226EA03031A432260E4
:10033000CA79D20647D5634A0BF00C0C13461268F3
:1003400042F001021A601A680EFA0CF302F0010280
:100350000192204A019CAC08A2F57E7656F8242032
:1003600022EA030A234A904208D0234A904207D047
:10037000224A009B904208BF022302E0002300E0D3
:10038000012303FA0CF242EA0A0246F82420114E35
:100390004A68D303336854BFBB433B433360930382
:1003A000736854BFBB433B437360D302B36854BF0D
:1003B000BB433B439202B360074A1346126854BFE3
:1003C000BA433A431A600BF1040B01355BE700BFF7
:1003D00000140140000401400C0401400000111011
:1003E0000000121000002110000022100000311047
:1003F0000000321000080140000C014000100140D4
:10040000002A08BF09040161704700000548006820
:10041000704700BF1B48034900780A681044086011
:10042000704700BF600D002080B50748016841F0AB
:1004300010010160032000F073F8002000F006F8BE
:1004400000F024F8002080BD0020024070B50D4E61
:1004500004464FF47A713078B1FBF0F00A4909682C
:10046000B1FBF0F001F0A2F801250F2C08D838B943
:100470004FF0FF3021460022002500F033F8746071
:10048000284670BD000000202400002082B00D48E6
:100490000222016841F001010160016801F00101DF
:1004A00001910199416841F080514160406800F03C
:1004B0008050009000980448016862F31A6101605E
:1004C00002B07047181002400400014000F01F0104
:1004D0000122400902FA01F1014A42F82010704756
:1004E00000E100E080B5144B1B68C3F3022CBCF1A3
:1004F000030E8CF007034FF0FF3C38BF4FF0000EA7
:10050000042B28BF04230CFA03F399430CFA0EF3CF
:1005100001FA0EF19A431143BDE8804001F05ABA46
:1005200005494FF6FF030A681A4060F30A220348A0
:1005300010430860704700BF0CED00E00000FA05B2
:1005400080B501F07F0E00EB411C090600EB4E1058
:1005500000F1280058BF0CF50A702AB10121C380B0
:100560008172190C018102E00021838081720020D8
:1005700080BD704700EB4112D0F85C04D26B01F0F3
:1005800092BD00EB4112D0F85C04D2F83C2201F09D
:10059000DBBD10B501F07F0C0A46044600EB4C139E
:1005A000100603F128014FEAD21058BF03F50A7173
:1005B000487081F800C094F82804012804BF022084
:1005C00010BD012084F82804206802F0BAF9002048
:1005D00084F8280410BDB0B5044601F07F030A4634
:1005E00000EB411004EB4311150601F128014FF017
:1005F000000558BF00F50A71D00948700B708D7066
:1006000094F82804012801D1022507E0012084F88C
:100610002804206802F02DFA84F828542846B0BD3A
:1006200001F00F0100EB4110B0F84402704770B5C3
:1006300001F07F0C06460C4600EB4C10250600F13D
:10064000280158BF00F50A71E0090A61487081F875
:1006500000C0CB7096F82804012804BF022070BDAA
:10066000012086F82804306802F060F8002086F83F
:10067000280470BD80B501F07F0C4FF0000E00EB38
:100680004C1101F50F77A7E80C4081F829E281F8B9
:1006900028C201F50A71006802F046FA002080BD08
:1006A000B0B5044601F07F050A4600EB411004EBAB
:1006B0004511130601F1280158BF00F50A71D00950
:1006C000487001200D70887094F82824012A04BF16
:1006D0000220B0BD84F82804206802F0FFF925B993
:1006E000206804F22C4102F0C2F9002084F82804AA
:1006F000B0BD80B501F07F0C00EB4C1101F828CFA4
:100700004FF0000C01F1140E8EE80C1001224A701B
:10071000006802F009FA002080BD2DE9FE4F044672
:10072000006802F0C1FA000401D42068ACE10020A6
:1007300048F60F75ADF80A00ADF8080004F22C4039
:10074000019098E1BDF80A1011F00F0832D030F88E
:1007500028104FEA4809ADF80810BDF90810B1F1AA
:10076000FF3F00F3098130F8191040F68F7204EB57
:10077000481A0AF50A7B114020F819109AF832122B
:10078000002900F0AC809BF8001030F82120B0F870
:10079000503003EBC101520400EB410100F1B6807F
:1007A000D1F80C646FF39F26002E00F0BC80BAF8DD
:1007B0003022B2E0BDF80A200188D2062AD42940AE
:1007C0000180B0F8501094F8282001EBC20100EB32
:1007D0004100D0F804046FF39F206064E16B08448B
:1007E0000021E0632046FFF7C5FE94F824000028AE
:1007F00000F04181206C002840F03D81206894F891
:10080000241041F08001C9B2A0F84C10002084F8F7
:10081000240030E1ADF80810BDF80810090541D4F6
:10082000BDF90810B1F1FF3F00F32581018840F6C2
:100830008F7211400180B0F8501094F8282201EB1B
:10084000C20100EB4101D1F80C346FF39F23002B60
:10085000C4F844320CD0B4F82C22D4F83C1202F084
:1008600026FAD4F83C02D4F844120844C4F83C02F6
:1008700020460021FFF785FE2068B0F85010D4F81C
:10088000383200F20C423F2BC0F0E3805F0140F2AF
:10089000FF36DB0627EA060708BF07F5F84747F4E7
:1008A0000043DBE0B0F8501094F8282201EBC201BD
:1008B00000EB4101D1F80C3401996FF39F23C4F888
:1008C0004432B4F82C2202F0F2F9206840F68F721C
:1008D000018811400180204600F00EFACBE0B0F80C
:1008E00050109BF8002001EBC20100EB4101D1F850
:1008F0000C646FF39F26002E00F0A980BAF82C221A
:10090000DAF83C12334602F0D2F91AE0D1F8046466
:100910006FF39F263EB1BAF82E22DAF83C12334626
:1009200002F0C5F900E000269BF80000216840F6BF
:100930000F7331F820201A4048F2C0031A4321F8FF
:100940002020DAE98F03DAF8441231448219002BAF
:10095000CAF84412CAF83C2203D0DAF83802B0428E
:1009600005D99BF800102046FFF70BFE04E09BF82A
:1009700000102046FFF77EFEBDF8080000067AD57D
:10098000206804EB481606F1280730F819102940B2
:1009900020F8191096F8321099B1397830F82120E2
:1009A000B0F8503003EBC101520600EB41011DD4F9
:1009B000D1F80C346FF39F23002B736421D0328E57
:1009C0001CE0B0F85020397802EBC10200EB420283
:1009D000D2F804346FF39F23002B73641FD0B28DC1
:1009E000F16B02F07DF93978206818E0D1F8043411
:1009F0006FF39F23002B736403D0F28DF16B02F031
:100A00006FF93978206840F60F7330F821201A40CA
:100A100048F2C00303F57F531A4320F82120B0F8B1
:100A2000502002EBC10200EB4200D0F804046FF347
:100A30009F207064D6E90F2302442046002BF26306
:100A400002D0FFF756FE16E0FFF794FD13E00026F4
:100A500077E703F0010707EB53039B029BB242F8D1
:100A6000113043F60F720188114048F2C00202F5BE
:100A70003F52514001802068B0F94410B1F1FF3F6E
:100A8000ADF80A107FF75EAE02F00EF940050DD505
:100A90002068B0F8441021F48061A0F8441020468A
:100AA00000F0FCF82046002100F012F9206802F066
:100AB000FBF801462068490442BFB0F8441021F415
:100AC0008041A0F8441002F0EFF801462068890444
:100AD00042BFB0F8441021F40051A0F8441002F0D5
:100AE000E3F801462068C90415D5B0F8401021F09C
:100AF0000401A0F84010B0F8401021F00801A0F85F
:100B00004010204600F0DCF82068B0F8441021F4D2
:100B10008051A0F8441002F0C7F8000519D52068EC
:100B2000B0F8401041F00801A0F84010B0F84410AF
:100B300021F40061A0F84410B0F8401041F0040125
:100B4000A0F8401002F0B0F8C00402D4204600F033
:100B5000F3F8206802F0A8F8800509D52068B0F8FD
:100B6000441021F40071A0F84410204600F0ACF8C5
:100B7000206802F099F8C00558BFBDE8FE8F2068D4
:100B8000B0F8441021F48071A0F84410BDE8FE8F45
:100B9000F0B585B000285ED0044690F8290428B945
:100BA000002084F82804204600F05AF8032084F836
:100BB0002904206801F052FF94E82F50D4E9076718
:100BC0008DE82050CDE9036701F0B9FE20680021CF
:100BD000002502F07DF80120002100220CE06318BE
:100BE00020319A8683F8282083F82900C3E90E551E
:100BF0001D6483F82B500132B1F5F07FEFD1002056
:100C0000002100220DE06318203183F8282283F8A8
:100C10002902C3E98E00C3F8400283F82B029A86AA
:100C20000132B1F5F07FEED194E88F00D4E905658B
:100C3000D4E907CECDE9007602AE86E8205001F077
:100C4000FBFE0025012084F8245084F82904206844
:100C500001F0F0FE00E00125284605B0F0BD0000DF
:100C600000680C49884218BF7047E0B50A48002266
:100C7000016841F4000101600021006800F40000F7
:100C8000019001981420FFF72DFC1420BDE88C4042
:100C9000FFF71CBC005C00401C10024010B504466D
:100CA0008068022818BFFFF7C9FAD4F85C04012154
:100CB00001F018FBD4F85C04BDE8104001F0DFBA85
:100CC000D0F85C0401F0FABAD0F85C0401F0FCBA88
:100CD00010B5044690F82804012804BF022010BD76
:100CE000012084F8241084F82804206801F0F2FF21
:100CF000002084F8280410BDD0F85C2400F22C41B8
:100D0000104601F0FBBA10B5044690F828040128FB
:100D100004BF022010BD0120012184F828042046D0
:100D2000FFF727FC206801F083FE206801F0AEFF8A
:100D3000002084F8280410BD10B50446D0F85C04E7
:100D400001F019FBA06920B10248016841F00601D9
:100D5000016010BD10ED00E02DE9FC410446007873
:100D60009D4EC00756D0B069C0000BD4B0694FF09B
:100D7000010840F08050B061B06900F080500190EF
:100D8000019801E04FF000082D4F3868C00510D4DD
:100D9000386840F480703860FFF738FB05463868E3
:100DA000C00506D4FFF732FB401B6428F7D90320A7
:100DB00042E0F06910F440701ED0616801F44071A7
:100DC000884219D01F49F06901220A6000220A6096
:100DD00020F44071C007F1610ED0FFF717FB054604
:100DE00041F28837F069800706D4FFF70FFB411BFB
:100DF0000320B942F6D91FE0F0696168B8F1000F2D
:100E000020F4407040EA0100F0611EBFB06920F09C
:100E10008050B0612068810705D53168A26821F44F
:100E2000404111433160C00605D53068E16820F4C7
:100E3000800008433060002002B0BDE8F08100BFB0
:100E400000700040400442422DE9F8430D465249EB
:100E50000446086800F00700A84209D2086820F09C
:100E6000070028430860086800F00700A84253D133
:100E70002068594F8946810711D5410742BF39681B
:100E800041F4E0613960010742BF396841F46051C3
:100E900039603968A26821F0F00111433960C00758
:100EA00033D1D9F8000000F00700A8420CD9D9F8D6
:100EB000000020F007002843C9F80000D9F800001E
:100EC00000F00700A84227D12068410705D53968FE
:100ED000E26821F4E06111433960000706D5386803
:100EE000216920F4605040EAC100386000F058F8F1
:100EF00039682A4A0024C1F30311515CC840FB49F8
:100F000008600020FFF7A2FA07E06068012808D116
:100F100057F8041C89030DD40124204601B0BDE814
:100F2000F08357F8041C022802D18901F4D501E0AE
:100F30008907F1D5396821F0030108433860FFF7CC
:100F400065FA0646606841F2883801280CD002280C
:100F500015D1386800F00C000828A2D0FFF756FA27
:100F6000801B4045F5D914E0386800F00C000428D7
:100F700097D0FFF74BFA801B4045F5D909E0386858
:100F800010F00C0F3FF48DAFFFF740FA801B404587
:100F9000F5D90324C1E700BF00200240F22E00086B
:100FA00010B50D4C0D48226802F00C03082B18BF39
:100FB00010BDC2F383430AA1CB5CD10302D40D4818
:100FC000584310BD21680AA25843C1F34041515C07
:100FD000B0FBF1F010BD00BF0410024000127A0017
:100FE00002030405060708090A0B0C0D0E0F10106A
:100FF0000102000000093D002DE9FC410446007893
:10100000B84EC00749D0706800F00C00042817D013
:10101000706800F00C00082802D17068C0030FD47B
:10102000606898B1B0F5803F06D03168B0F5A02F68
:1010300020D141F480203060306840F480301FE0DF
:101040003068800329D5606838BB07E1306820F438
:1010500080303060306820F480203060FFF7D6F9AF
:1010600005463068800318D5FFF7D0F9401B642887
:10107000F7D9E2E021F480303060306820F480203D
:101080003060FFF7C3F905463068800305D4FFF7E9
:10109000BDF9401B6428F7D9CFE0207880072BD515
:1010A000706810F00C0F07D0706800F00C00082872
:1010B00009D17068C00306D43068800715D520694F
:1010C000012812D0CAE02169874800297CD001217B
:1010D0000160FFF79BF905463068800705D4FFF7EC
:1010E00095F9401B0228F7D9A7E03068616920F024
:1010F000F80040EAC1003060207800072ED5A069D2
:1011000078B179480121C0F88014FFF77FF90546CE
:10111000706A800715D4FFF779F9401B0228F7D9C8
:101120008BE071480021C0F88014FFF76FF9054685
:10113000706A800712D5FFF769F9401B0228F7D9BA
:101140007BE06A484FF4FA510068B0FBF1F001907F
:1011500000BF0198411E00280191F9D12078400775
:1011600074D5F069C0000BD4F0694FF0010840F06D
:101170008050F061F06900F080500090009801E02C
:101180004FF000085A4F3868C0050FD4386840F453
:1011900080703860FFF73AF905463868C00505D415
:1011A000FFF734F9401B6428F7D946E0E068D0B176
:1011B000012805D0316A05282BD141F004003062A6
:1011C000306A40F001002AE000210160FFF71EF9BB
:1011D0000546306880077FF58FAFFFF717F9401B92
:1011E0000228F6D929E0306A20F001003062306A26
:1011F00020F004003062FFF709F9054641F2883714
:10120000306A80071BD5FFF701F9401BB842F7D9B8
:1012100013E021F001003062306A20F004003062F7
:10122000FFF7F4F8054641F28837306A800706D4A4
:10123000FFF7ECF8401BB842F7D903204FE0B8F1B4
:10124000000F1EBFF06920F08050F061E769002FA9
:1012500044D0706800F00C00082801D101203EE065
:101260002149002088460866FFF7D0F80546022F7E
:101270000AD147463068800110D5FFF7C7F8411BF7
:1012800003200229F6D92AE03068800126D5FFF72D
:10129000BDF8411B03200329F6D320E0206AB0F5F6
:1012A000803F05D17168A26821F40031114371605B
:1012B0007168626A104321F4741108437060012060
:1012C0003866FFF7A3F804463068800106D4FFF7BC
:1012D0009DF8011B03200229F6D900E0002002B08E
:1012E000BDE8F081001002400000424224000020CE
:1012F0000070004070B5C8B3002605464FF0000CE2
:10130000866290F8510020B9284600F033F8D5F8ED
:1013100028C0022185F8511029680A6822F040028D
:101320000A60D5E90123D5E903041A4310436A6929
:1013300020431043AA6902F400731843EB69184371
:101340002B6A184340EA0C000860042000EA1240AF
:101350006A6A10434860E86A0861C86920F400605E
:10136000C86101206E6585F8510000E00126304615
:1013700070BD000070B586B00026194CCDE904663A
:10138000CDE90266006804F52051884225D1BE48A7
:1013900002AD016841F480510160016801F480519F
:1013A00001910199016841F004010160294600683A
:1013B00000F00400019001980320059002200390A2
:1013C000A02002902046FEF74DFF4020CDE90366A5
:1013D000294602902046FEF745FF06B070BD00BFCB
:1013E000000801402DE9FC47044690F85000012810
:1013F00001D10220C1E001201D4616468A4684F82C
:101400005000FFF703F894F851108146012961D18B
:10141000BAF1000F4FF0010018BF002E00F0A780B6
:10142000002D00F0A48094F85100DDF828800128F8
:1014300004BF052084F8510000206065E587A6639D
:10144000A587C4F830A0C4E91000A586E586206809
:10145000016849065EBF016841F040010160E26831
:101460006168B2F5006F43D111B1E18E012905D158
:101470003AF8021BC160E08E0138E086012708F1CE
:101480000105E08E10B9E08F002866D05FB1E08ED4
:1014900050B120688168890706D53AF8021BC160FF
:1014A000E08E0138E0860027E08F50B12068816827
:1014B000C90706D0C068012726F8020BE08F013863
:1014C000E087002DDDD0FEF7A1FFA0EB090040452D
:1014D000D7D34BE06068B0F5827F07D102200429A2
:1014E00045D1A16800293FF493AF40E002203EE0DF
:1014F00011B1E18E012905D11AF8011B0173E08EAB
:101500000138E086012708F10105E08E08B9E08F77
:1015100018B35FB1E08E50B120688168890706D5A5
:101520001AF8011B0173E08E0138E0860027E08F76
:1015300050B120688168C90706D0C068012706F845
:10154000010BE08F0138E087002DDED0FEF75EFF53
:10155000A0EB09004045D8D308E020460221012233
:101560004346CDF8009000F05AFA48B1032000211C
:1015700084F85010012184F8511002B0BDE8F087C2
:10158000204641464A4600F038FA18B120206065EE
:101590000120ECE7A16800200029E8D10190216832
:1015A000CA680192896801910199E0E7411E002013
:1015B000B0EB116F1CBF01207047044AF02351604B
:1015C00003490B70072190601160704710E000E044
:1015D00023ED00E07047704790F83C300222012B69
:1015E0001AD080F83D200268536823F070035360DE
:1015F000D1F800C0536843EA0C035360936823F0AA
:101600008003936049689368194391600022012127
:1016100080F83C2080F83D1010467047B0B110B5FE
:10162000044690F83D0028B9002084F83C0020468C
:1016300000F00EF80220211D84F83D00206800F023
:1016400099FA012084F83D00002010BD0120704768
:1016500000680C49884218BF7047E0B50A4800226C
:10166000016841F4006101600021006800F400603D
:10167000019001981920FEF735FF1920BDE88C4034
:10168000FEF724BF002C0140181002400068C1681A
:1016900041F00101C160016841F0010101600020D9
:1016A000704710B590F83C2004460220012A08BF7C
:1016B00010BD84F83D0001204FF6777384F83C009C
:1016C000206882689A4382600A68BAB1102A1BD0E7
:1016D000202A1FD0302A23D0402A27D0502A31D0A8
:1016E000602A3BD0702A45D0B2F5005F51D0B2F5E8
:1016F000805F5DD1816821F0070158E0816841F089
:10170000070121F0700152E0816841F0170121F0DA
:1017100060014CE0816841F0270121F0500146E072
:10172000816841F0370121F0400140E04B68CA6810
:10173000194600F04DFA2068816841F0470121F018
:10174000300134E04B68CA68194600F041FA20685D
:10175000816841F0570121F0200128E04B68CA68F8
:10176000194600F046FA2068816841F0670121F0CF
:1017700010011CE0D1E90123C9681A4342EA0121A2
:10178000826822F47F4211438160816841F07701D1
:101790000DE0D1E90123C9681A4342EA01218268B8
:1017A00022F47F4211438160816841F4804181606D
:1017B0000020012184F83C0084F83D1010BD7047E2
:1017C00010B5044600680169890744BFC1685FEA33
:1017D000817138D40169490744BFC1685FEA41712A
:1017E0003DD40169090744BFC1685FEA017143D470
:1017F0000169C90644BFC1685FEAC16148D4016993
:10180000C9071CBFC1685FEAC1714ED101690906F1
:1018100044BFC1685FEA01614FD40169490644BF12
:10182000C1685FEA416150D40169890646BFC16859
:101830005FEA816110BD6FF0200101612046BDE8C3
:101840001040FFF7C8BE6FF002010161012121774E
:101850008069800741D02046FFF7B1FF43E06FF079
:101860000401016102212177806910F4407F3ED09C
:101870002046FFF7A4FF40E06FF00801016104215A
:101880002177C06980073CD02046FFF798FF3EE0F3
:101890006FF01001016108212177C06910F4407FC9
:1018A00039D02046FFF78BFF3BE06FF0010101616B
:1018B000204600F03DF82068A8E76FF08001016144
:1018C0002046FFF787FE2068A7E76FF0400101611F
:1018D000204600F035F82068A6E7204600F025F8FD
:1018E000204600F023F800202077206872E7204689
:1018F00000F01BF8204600F019F80020207720683F
:101900006FE7204600F011F8204600F00FF80020A5
:10191000207720686CE7204600F007F8204600F0AA
:1019200005F800202077206869E7704770470000BD
:101930000248416801314160704700BF98010020B2
:101940007047FEE7B0B552004FF0000C4FF0370E75
:1019500000239A4208BFB0BD0EEB1074050FB0F122
:10196000204F4FEA001038BF05F13004CC5443F04B
:101970000104023301F804C0EBE7000080B5104811
:101980001049002200F068FB08B1FEF757FC0C4834
:101990000D4900F00DFD08B1FEF750FC08480B4959
:1019A00000F0FBF908B1FEF749FC054800F014FD12
:1019B000002814BFBDE8804080BDFEF73FBC00BFDB
:1019C0004406002008000020280000204C010020D0
:1019D000FEE7704710B5064A00F00F030028054CDB
:1019E00002444FEA0110B8BF1A19107010BD00BFB1
:1019F00000E400E014ED00E07047BCB50B46009237
:101A0000802100220546002400F009F820B1686D0D
:101A1000032440F020006865204602B0B0BD2DE9E7
:101A2000F843DDF820801D4616460F4681465C1CB3
:101A3000D9F8000081683940C91BB1FA81F1490920
:101A4000B14235D0002CF3D03DB1FEF7DFFCA0EB66
:101A50000800A842ECD3D9F80000416821F0E00169
:101A60004160D9F80410B1F5827F0BD1D9F8081084
:101A7000B1F5004F02D0B1F5806F03D1016821F0BC
:101A800040010160D9F82810B1F5005F08D1016864
:101A90004DF6FF7211400160016841F40051016090
:101AA000002089F85000012089F85100032000E04F
:101AB000002001B0BDE8F0837047FEF7ABBCB0B5C5
:101AC00094B000244FF4801002250121CDE90F4489
:101AD000CDE90D44CDE9024413904FF480301290CB
:101AE00011950E910C94CDE90A100AA8FFF784FA1B
:101AF0004FF480600994012108900F20CDE906542D
:101B0000059005A8FFF7A0F94FF48000049010207D
:101B1000019001A8FFF720F914B0B0BD0E480F4A9C
:101B2000016841F001010160416811400C4A4160C7
:101B3000016811400160016821F480210160416861
:101B400021F4FE0141604FF41F01816005484FF010
:101B500000610160704700BF001002400000FFF804
:101B6000FFFFF6FE08ED00E00148FFF729BE00BFC9
:101B7000200D0020B0B50368124DB0F1804F07D0A2
:101B8000114CA04204D0A84202D0104CA04207D170
:101B90004C6823F45C73CA6824F4407423431343F1
:101BA0004A6923F08003A84242EA030202608A687D
:101BB000C2620A68826204BF096929630121416126
:101BC000B0BD00BF002C01400004004000080040F0
:101BD000D0F820C0036A23F001030362836923F075
:101BE000F00343EA021282612CF00A0211430162FF
:101BF0007047036A23F010030362836923F4704380
:101C000043EA0232036A826123F0A00242EA011130
:101C100001627047D0F8181200290EBF0220002080
:101C2000C1F814027047B0B5D0F81852044600F05D
:101C3000BDFAC5F80C02D4F8180248B1D4F81C2239
:101C4000D5F8040205F50371D26890470020B0BDB5
:101C50000220B0BDB0B50D4D81210446A8472046F5
:101C60000121A84720468221A847D4F8180250B184
:101C7000D4F81C0240688047D4F8180200F050FDE8
:101C80000020C4F818020020B0BD00BF9520000855
:101C900010B5D0F81C1269B1D0F8184294F80002BF
:101CA000FF2807D08B6894F8012221469847FF202F
:101CB00084F80002002010BD0A210180004870470E
:101CC000E8000020432101800048704760000020A8
:101CD0004321018000487047A40000204321018077
:101CE00000487047F4000020B0B50446007C50B1B5
:101CF000204681210222402300F0ACFA2046012137
:101D0000022240230BE02046812102224FF400737F
:101D100000F0A0FA2046012102224FF4007300F0E7
:101D200099FA204682210322082300F093FA4FF407
:101D3000077000F0F7FC0028C4F8180217D0054619
:101D4000D4F81C020068804700200121C5F8140265
:101D5000C5F81802207CD5F804220028204614BFBC
:101D600040234FF4007300F081FA0020B0BD012041
:101D7000B0BD80B5D0F8181269B1D1F80422017C49
:101D800000294FF0010114BF40234FF4007300F00D
:101D90006DFA002080BD022080BD00290EBF022008
:101DA000C0F81C1200207047D0F81802C0F80412C6
:101DB00000207047D0F81802C0F81022C0F80812AE
:101DC0000020704770B5044608780D4610F0600199
:101DD00011D0202929D1EA88A2B1D4F818620006CE
:101DE00018D4687886F80122314686F80002204629
:101DF00000F05AF819E068780A2816D10C492046F4
:101E0000012210E0D4F81C12687800228B68294661
:101E100098470AE0D4F81C1268788B6831469847D6
:101E2000EA882046314600F057F8002070BD00BF18
:101E300020020020D0F818328BB1D3F814220121EF
:101E400072B980B5C3F814128121D3F80822B3F80F
:101E5000103200F099FA0021BDE8804000E0022134
:101E60000846704780B5D0F8142252689047002089
:101E700080BD80B513460A46002100F0F7F9002026
:101E800080BD80B513460A46002100F07DFA00208F
:101E900080BD10B58021044600F05BFA2046002189
:101EA000BDE8104000F055BA80B513460A4603213C
:101EB000C0E94233C0F8F411002100F0D7F9002046
:101EC00080BD80B5052100220023C0F8F411002157
:101ED00000F0CCF9002080BD80B513460A460221EF
:101EE000C0E90633C0F8F411002100F04DFA0020DB
:101EF00080BD80B5042100220023C0F8F411002128
:101F000000F042FA002080BD10B5274C0A4603A01D
:101F1000214600F067F8204610BD00BF434443202F
:101F2000436F6E66696700001220088000487047A2
:101F30003801002010B51C4C0A4603A0214600F0D1
:101F400051F8204610BD00BF43444320496E7465DC
:101F500072666163650000000420088000487047D5
:101F60005C01002010B5104C0A4603A0214600F089
:101F700039F8204610BD00BF57616E67467567751A
:101F80006900000010B5084C0A4603A0214600F085
:101F900029F8204610BD00BF41444953313634343E
:101FA0003842726964676500240200201A200880A4
:101FB0000A4908688A6880180ED0B0B5084D4C6888
:101FC0000822A91CFFF7BEFC05F1120120460422DD
:101FD000FFF7B8FCBDE8B04001487047E8F7FF1FC5
:101FE0006001002080B550B34FF0000C864603E03E
:101FF0000EF1010E0CF1010C9EF80030002BF7D110
:102000005FFA8CFC4FF0020E0EEB4C0CA2F800C0F5
:1020100081F800C04FF0030C01220BE05FFA8EF351
:1020200001304FF0000CCA544EF001020EF10203D1
:10203000D2B29E4601F802C00278002AEED180BDDD
:1020400003288FBF0220C000024921FA00F098BF88
:10205000C0B270470002010288B1D0F8143213B147
:102060000023C0F8143209B1C0F8101280B5012164
:10207000027080F8FC1100F09FF8002080BD022063
:10208000704780B5D0F82002FEF7A5FABDE8804081
:10209000FFF7D6BF80B5D0F82002FEF77AFABDE888
:1020A0008040FFF7CDBFB0B5044659B1D4F8140253
:1020B0004269002A46D094F8FC01032842D1204608
:1020C00090473FE0D4F8F401022834D1D4E9071056
:1020D000814208D9081A114683B2E06120461A46A7
:1020E000FFF7CFFE13E0A169814217D3B1FBF0F2F5
:1020F00002FB101090B9D4F8F80181420ED22046AC
:10210000002100220025FFF7BCFEC4F8F85120464C
:1021100000210022002300F0A9F80CE0D4F81402FA
:10212000C16829B194F8FC01032801D120468847F1
:102130002046FFF7C6FE94F80002012804BF0020E5
:1021400084F800020020B0BD10B5044651B1D4F8A7
:102150001402826942B394F8FC01032824D120467A
:10216000904721E0D4F8F40103281DD1D4E94310AD
:1021700081420CD9091AC4F80C11814238BF0846B3
:1021800083B2114620461A46FFF773FE0CE0D4F8DE
:102190001402016929B194F8FC01032801D12046F9
:1021A00088472046FFF7A5FE002010BD80B5D0F877
:1021B0002002FEF735FA80BDB0B504461B48002169
:1021C0001B4B0822C0F85C44C4F82002C0E9061189
:1021D00001620221C0E900328160FEF7D9FC08B13A
:1021E000FEF72CF8D4F82002124D0021002218230B
:1021F000A847D4F82002802100225823A847D4F809
:10220000200281210022C023A847D4F82002012106
:1022100000224FF48873A847D4F8200282210022BC
:102220004FF48073A8470020B0BD00BF68080020AD
:10223000005C004041050008D0F8200201F07F0258
:10224000090600EB421000F12A0258BF00F22A22D0
:102250001078704780B59446D0F820021A4663463D
:10226000FEF7E5F9BDE88040FFF7EABE80B5D0F89B
:102270002002FEF7FFF9BDE88040FFF7E1BEB0B5F0
:1022800000210022402304464025FFF7E3FF2046BB
:10229000802100224023C4F81051FFF7DBFF01200A
:1022A00084F8FC012562D4F8180228B1D4F814028D
:1022B00021794268204690470020B0BD90F8FD117A
:1022C00080F8FC110020704790F8FC11032907D119
:1022D000D0F81412C96919B180B58847BDE88040AB
:1022E0000020704701740020704780B5D0F82002AC
:1022F000FEF7EEFCBDE88040FFF7A2BEB0B500F5EA
:1023000002750446284600F048F8B4F80E12012081
:10231000C4E97D0194F8080200F01F01022907D0EA
:1023200001290AD071B92046294600F05BF80EE079
:102330002046294600F06EF909E02046294600F0C3
:10234000D2F904E000F08001204600F002F80020FD
:10235000B0BD80B5D0F82002FEF7A2F9BDE88040FC
:10236000FFF76EBE80B5D0F82002FEF7CCFCBDE8CA
:102370008040FFF765BE90F8FC1180F8FD11042144
:1023800080F8FC110020704780B5D0F82002FEF7DD
:10239000B0F9BDE88040FFF753BE0A7802704A7872
:1023A00042704A8842808A888280C988C18070478A
:1023B00000290EBF0220C0F8141200207047D0F888
:1023C00014223AB180B512689047002818BF012046
:1023D000400080BD0220704780B5FFF7C3FF00209A
:1023E00080BD0000BCB504464878092800F2CF80C3
:1023F0000D46DFE800F00518CC25CC5A7ACC3646DD
:1024000094F8FC0100F0FE00022840F0C080D4F8EF
:10241000040203222146002808BF012241F80C2FA4
:1024200020460222D8E094F8FC0100F0FE000228C9
:1024300040F0AD806888012840F0AC80002004E0C6
:102440006888012840F0A6800120C4F804022946CB
:10245000D4F814028268204690472046FFF749FDD1
:1024600098E0E888012840F0928094F8FC01032865
:1024700051D0022840F08B800020214641F8080FFF
:102480004AE06888624DC1B22870022980F07F80DE
:1024900094F8FC01032842D0022840F078800029FB
:1024A000DBD0032084F8FC0144E0A888002840F039
:1024B0006E80E888002840F06A8094F8FC010328C8
:1024C00000F06580A87800F07F052046294684F852
:1024D000FE51FFF70AFF2046FFF70BFD002D0CBF52
:1024E0000120022084F8FC0154E068884FF0FF319D
:1024F00001EB102106294AD8DFE801F00431244914
:10250000493E4700D4F81012207C0A680DF10601FC
:102510009047014653E0211D204601225CE000293E
:102520003BD0606888423FF498AFC1B22046FFF7C5
:1025300099FC297820466160FFF741FF02287FF46B
:102540008CAF24E0C0B2052821D8DFE800F00348B2
:102550004D52575CD4F81012207C4A68D6E7217C93
:10256000D4F8140200290CBF816AC16A0DF106007B
:1025700088470146022021E0207C40B9D4F81402AB
:10258000416B0DF106008847C3E7207C70B12046FF
:10259000FFF77FFC002002B0B0BD00206060022089
:1025A00084F8FC012046FFF75DFC56E7D4F81402DE
:1025B000016B0DF106008847014607204870BDF801
:1025C00006000028E6D0EA88002AE3D0904238BF0F
:1025D0000246ADF806202046FFF77EFCDAE7D4F885
:1025E0001012207C8A6891E7D4F81012207CCA6807
:1025F0008CE7D4F81012207C0A6987E7D4F810120F
:10260000207C4A6982E7D4F81012207C8A697DE731
:1026100021020020B0B5044608780D4600F06000A5
:10262000202807D1D4F81402294682682046904712
:102630000020B0BD6878297988B1012818D0032816
:10264000F6D194F8FC01032816D1688850BB41F0FC
:102650008000802826D02046FFF77BFE22E094F8F9
:10266000FC01032828D0022810D148060AD1DFE750
:1026700094F8FC0103280DD0022807D141F0800016
:102680008028D5D02046FFF764FED1E72046FFF72B
:1026900000FCCDE768880028CAD1480608D020464B
:1026A000FFF7EFFCD4F814022946826820469047D1
:1026B0002046FFF71EFCBBE701F07F000A0604EB93
:1026C000001000F1140558BF00F582752046FFF791
:1026D000B3FD002818BF01202860294602222046A9
:1026E000FFF7FAFBA4E7B0B5044690F8FC01032815
:1026F00004D188880D4610F0FE0F04D02046FFF765
:10270000C8FB0020B0BDD4F81402294682682046D8
:102710009047E8880028F4D12046FFF7EAFBF0E76D
:1027200070470000004870472404002070B5CA7844
:10273000032A0CD8DFE802F0020D161D0D7848F6CA
:102740008F1430F82520224002F5007219E00D7830
:1027500019E00D7848F68F1430F82520224002F554
:1027600080620EE00D7848F68F1430F82520224064
:1027700007E00D7848F68F1430F82520224002F546
:10278000C06220F825206A0040F60F7348F2800CE2
:1027900030F8124023402B4343EA0C0320F8123058
:1027A00000EB42028B7A002B48D0138840F60F666C
:1027B00033400CF5807633431380CB88B0F85060FB
:1027C00006EBC50623F0010300EB4606C6F800340D
:1027D0000B89B0F8506006EBC50623F0010300EB4F
:1027E0004600C0F808344978108800F48040002979
:1027F00044D038B1108840F60F7108400CF5804184
:10280000084310801088400607D5108840F60F71E5
:1028100008400CF1400108431080108840F60F7109
:1028200008400CF58041084340F63F711080108845
:10283000084043F60F7140EA0C0044E04B788C8866
:10284000B0F8506006EBC50624F0010E002B40D016
:1028500000EB4600C0F800E41088400607D5108859
:1028600040F60F7108400CF14001084310801088B9
:1028700040F63F7108400CF120015CE038B110884F
:1028800040F60F7108400CF5804108431080108815
:10289000400607D5108840F60F7108400CF1400142
:1028A00008431080108840F60F7108400CF1400179
:1028B000084343F60F711080108808400CF5405112
:1028C000484040F63F7110801088084040EA0C00F4
:1028D00032E000EB4604EB00C4F808E4B0F85060C6
:1028E000096900F20C4033443F290BD34E0140F2FA
:1028F000FF35C90626EA050608BF06F5F84646F480
:10290000004104E001F0010606EB5101890289B2A1
:1029100040F813101088400407D5108840F60F7156
:1029200008400CF5804108431080108843F60F7171
:1029300008400CF5405148401080002070BD002038
:10294000704780B50A784B78897A48F2800C30F865
:1029500022E000EB820041B30EF480428BB33AB127
:10296000018840F60F7211400CF58042114301803E
:102970000188490607D5018840F60F7211400CF115
:10298000400211430180018840F60F7211400CF59E
:102990008042114340F63F7201800188114041EAB4
:1029A0000C01018043F60F7230E0B3B35FEA4E6171
:1029B0002AD5018840F60F7211400CF140021143F4
:1029C00021E03AB1018840F60F7211400CF58042C7
:1029D000114301800188490607D5018840F60F722E
:1029E00011400CF1400211430180018840F60F7242
:1029F00011400CF14002114343F60F72018001882F
:102A0000114041EA0C01018040F63F7201881140FB
:102A100041EA0C010180002080BD5FEA4E41C1D532
:102A2000018840F60F7211400CF580421143B8E75F
:102A300000207047002070470121A0F840100021BD
:102A4000A0F84010A0F84410A0F85010B0F84010C2
:102A500041F43F41A0F8401000207047B0F840100A
:102A600044F2FF221140A0F84010002070470020DF
:102A7000704780B50B78497830F823205B0091B11E
:102A8000510648F2B00E0BD530F813C040F60F7166
:102A90000CEA010C0EF1100141EA0C0120F81310B0
:102AA00040F63F7111E051044BF2800E0BD530F827
:102AB00013C040F60F710CEA010C0EF5805141EA8B
:102AC0000C0120F8131043F60F7130F81320114059
:102AD00081EA0E0120F81310002080BD0A786AB147
:102AE000497830F82230520049F2800C81B140F62A
:102AF0003F711940ACF57F6359400EE0018843F601
:102B00003F731940074B1033594020F8221006E05C
:102B100043F60F71194081EA0C0120F812100020D1
:102B2000704700BF8090FFFF70B5044608698E694A
:102B30000D460146864288BF3146A1EB0001A961DE
:102B400088BF06466878A97A012827D151B328782A
:102B5000B3B234F82010B4F8502002EBC00004EBFC
:102B60004000C0F8046448064FF0080058BF062033
:102B70002A5A6969204600F0B3F8687848F2B00133
:102B8000002841D001284BD1287840F60F7334F843
:102B900020201A403C4B03F580533DE0B1B1D8B141
:102BA000287864E0AA886969B3B2204600F098F8F2
:102BB000B4F85010287840F63F7201EBC00104EBE6
:102BC0004101C1F8046448F2B00154E0B4F8501077
:102BD000287801EBC00132E0B4F85010287804F2F4
:102BE00004433F2E01EBC00E4FEAC0021CD34FEA54
:102BF000461C40F2FF35F1062CEA050508BF05F535
:102C0000F84545F4004114E0287840F60F7334F895
:102C100020201A4001F110031A4324F8202000E07C
:102C2000287840F63F7226E006F0010101EB5601DC
:102C300089028DB243F81E50B4F85010114404F2CA
:102C40000C423F2E0BD3730140F2FF35F60623EA08
:102C5000050308BF03F5F84343F4004304E006F01E
:102C6000010303EB56039B029BB242F8113043F67B
:102C70000F724BF2800134F820301A40514024F892
:102C80002010002070BD00BF80B0FFFFB0F84010E2
:102C900041F43F41A0F84010002070470148FDF783
:102CA0003CBD00BF68080020B0F84400704700EB4E
:102CB000420003F1010C0023A3EB5C0300F58060EC
:102CC00003E004C8013321F8022B002BF9D170472F
:102CD0000020704711B98021A0F84C1000207047E7
:102CE00000EB420003F1010C0023A3EB5C0300F5B1
:102CF000806004E031F8022B013320F8042B002B14
:102D0000F8D17047FEE7000088B0FDF78DFBFEF7B5
:102D1000D6FE6848684F00224FF400550024016831
:102D200007F5006641F010010160016801F0100133
:102D300004910499016841F020010160016801F0EB
:102D4000200104910499016841F0040101604FF4ED
:102D50000051006800F00400049004983046FDF72C
:102D60004FFB3846182101224FF00109FDF748FBBF
:102D70004FF00208DFF844A13046CDE90648CDE91E
:102D8000045904AD2946D0474D480694294605907C
:102D9000042004903846D0471120CDE906982946F2
:102DA0000590082004903846D0471020CDF81C80AC
:102DB000CDE90594294604903846D04708200021E3
:102DC0000022FDF78FFB0820FDF780FB3D480A211C
:102DD00028254FF400624FF4827307F52056C0E9AE
:102DE0000844C0E90A414FF40071C0E90063C0E93A
:102DF0000242C0E90489C0E90615FEF77BFA324EAB
:102E000063202F2107F510520794CDE90544C6E948
:102E10000021C6E902403046C6E90444B461FEF729
:102E2000FDFB4FF4805004A904903046FEF739FCB6
:102E300002A9304603944FF0000A0294FEF7CCFB3F
:102E4000FEF79CFD3046FEF721FC204DDFF880B0F8
:102E50004FF47A7941F2342445F2786628780028D4
:102E6000FCD015482F461021002207F80CAB8046F5
:102E7000FDF7C6FA134859463A460D23CDF800909F
:102E8000FEF7B0FA404610210122FDF7B9FA05F12C
:102E90002A0005F110011622FDF744F9284620F812
:102EA000284FC68350F8201C81612021FDF7ACF922
:102EB000D4E700BF18100240000801406502000876
:102EC00000001110C80C0020200D002098010020E7
:102ED0007A01002002E008C8121F08C1002AFAD1B6
:102EE00070477047002001E001C1121F002AFBD18A
:102EF0007047000000000000000001020304060704
:102F000008090000282F0008000000209801000098
:102F10006C010008F02F000898010020D00F00007D
:102F2000E42E0008000000003201321013291F1B9C
:102F30000859041A65041A85041AAD041A09041AFA
:102F400035041116A24A04E91C1B0855041BC51DB3
:102F500010311A910C1A15041A2704C12AD1241908
:102F6000041ADD041AB9041409024313020125C02E
:102F70003209041B01020B1305241610010524015C
:102F80001009010424020205240617010705820323
:102F900008151009040133020A2E07050102400733
:102FA0002A810711093744113A02441907112B0AE3
:102FB0000606112A40F02B0907500A2204500A166F
:102FC000FF941A12171302021E40332366664D1B2C
:102FD00002035913CD011B08C9041AC5041AF104D0
:102FE0000719040309041A03021C3E000000000034
:04000005080000ED02
:00000001FF
