:020000040800F2
:10000000202B00200D02000895320008F32F000875
:10001000913200081D080008C55A000800000000C1
:10002000000000000000000000000000233700086E
:10003000E1080008000000006B35000825370008C3
:1000400027020008270200082702000827020008EC
:1000500027020008270200082702000827020008DC
:1000600027020008270200082702000827020008CC
:1000700027020008270200082702000827020008BC
:1000800027020008270200082702000827020008AC
:10009000270200082702000827020008270200089C
:1000A0002702000879380008270200082702000804
:1000B000270200082702000827020008270200087C
:1000C000270200082702000827020008270200086C
:1000D000270200082702000827020008270200085C
:1000E000E30800082702000827020008270200088A
:1000F000270200082702000827020008270200083C
:10010000270200082702000827020008270200082B
:10011000270200082702000827020008270200081B
:10012000270200082702000827020008270200080B
:1001300027020008270200082702000827020008FB
:100140002702000827020008270200089932000849
:1001500027020008270200082702000827020008DB
:1001600027020008270200082702000827020008CB
:1001700027020008270200082702000800000000EC
:1001800027020008270200082702000827020008AB
:10019000270200082702000827020008270200089B
:1001A00000000000000000002702000827020008ED
:1001B000270200082702000827020008270200087B
:1001C000270200082702000800000000270200089C
:1001D000270200082702000827020008270200085B
:1001E000270200082702000827020008270200084B
:1001F0000000000027020008DFF80CD000F062FACF
:100200000048004755640008202B0020064880471E
:1002100006480047FEE7FEE7FEE7FEE7FEE7FEE7EB
:10022000FEE7FEE7FEE7FEE715380008F9010008E3
:100230002DE9F05F0546002092469B46884606461B
:10024000814640241BE0284641464746224600F0AE
:1002500070F853465A46C01A914110D311461846B9
:10026000224600F057F82D1A67EB01084F46224648
:100270000120002100F04EF817EB00094E41201E2E
:10028000A4F10104DFDC484631462A464346BDE876
:10029000F09F40EA01039B0703D009E008C9121F41
:1002A00008C0042AFAD203E011F8013B00F8013B30
:1002B000521EF9D27047D2B201E000F8012B491E5C
:1002C000FBD270470022F6E710B513460A460446F3
:1002D0001946FFF7F0FF204610BD421C10F8011B25
:1002E0000029FBD1801A704730B50B46014600202B
:1002F0002022012409E021FA02F59D4205D303FAE8
:1003000002F5491B04FA02F52844151EA2F1010268
:10031000F1DC30BD202A04DB203A00FA02F1002093
:1003200070479140C2F1200320FA03F31943904033
:100330007047202A04DB203A21FA02F0002170479E
:1003400021FA02F3D040C2F120029140084319463D
:1003500070472DE9FE4F804681EA0300C00F0C462E
:10036000009021F0004123F00045B8EB0200A941C4
:1003700005D24046214690461C460B46024623F0D5
:100380000040104347D0270DC7F30A00C3F30A51BA
:100390000290401A019040286BDAC3F3130040F436
:1003A000801B0098924620B10023D2EB030A63EB36
:1003B0000B0B01985946C0F140025046FFF7AAFFC7
:1003C00006460D4650465946019A00F08DF910EB4D
:1003D00008006141002487EA115284EAE7731A4356
:1003E00040D0009A62B3019A012A4FEA075215DC05
:1003F000001B61EB02014FF0004202EA0752CDE917
:100400000042001C41F5801132462B4600F08DF968
:1004100003B0BDE8F08F40462146F9E7001B61EBD1
:100420000201001C41F5801300185B412018A2F561
:10043000001747EB030140EAD570B6196D4111E092
:100440006D084FEA360645EAC0754FEA0752001BB1
:1004500061EB0201001C41F5801149084FEA3000B0
:100460000019514132462B4603B0BDE8F04F00F071
:100470004DB90098012240000023D0EB020263EB4B
:10048000E073009821464FEAE074B8EB000061EB9E
:100490000401E9E783F000435BE781F0004158E79E
:1004A0002DE9FE4F81EA030404F0004421F00041ED
:1004B00000944FF0000B23F0004350EA01045ED09B
:1004C00052EA03045BD0C3F30A54C1F30A552C4427
:1004D000A4F2F3340194A0FB0254C1F3130141F4DC
:1004E0008011C3F3130343F4801301FB024400FBA8
:1004F000034E840A970A44EA815447EA8357A4FBCF
:10050000076802958D0A05FB07854FEA932C04FBCB
:100510000C542705029D4FEA065847EA1637B5EBFB
:1005200008056EEB070C870E920E47EA811742EA28
:100530008312A7FB0201B6EB0B0164EB00042B0D49
:1005400043EA0C335E1844EB1C50DA465146E7FB95
:100550000201C5F313044FEA0B3343EA14534FEA85
:100560000432019C43EA0603A4F10C040294009CAB
:10057000CDE900B400F0D9F803B0BDE8F08F002059
:100580000146F9E72DE9F04D81EA030404F0004B40
:1005900021F0004514464FF0000A23F0004150EAD4
:1005A000050220D054EA01021DD0C5F30A570246C5
:1005B000C5F31303C1F31300C1F30A5640F48015C9
:1005C00043F48013A7EB0608101BD64608F2FD384B
:1005D00073EB050002D308F1010801E092185B41BA
:1005E000B8F1000F03DA00200146BDE8F08D0020CD
:1005F0004FF48011064684460EE0171B73EB050787
:1006000005D3121B63EB050306434CEA010C4908B2
:100610004FEA300092185B4150EA0107EDD152EAEF
:10062000030012D082EA040083EA0501084305D0E2
:10063000101BAB4106D20122002306E000224FF03E
:10064000004302E06FF0010253101AEB06004CEB7E
:10065000085110EB0A0041EB0B01BDE8F04D00F032
:1006600055B8C1F30A52C1F3130140F2FF3341F40C
:1006700080119A4202DA00200146704740F233436B
:100680009A42A2F2334202DC5242FFF752BEFFF717
:1006900041BE000030B5041E71F1000404DB4FF0D0
:1006A0000044404264EB0101141E73F1000405DBB9
:1006B0001C464FF00043524263EB0403994208BFCB
:1006C000904230BD064C074D06E0E06840F0010363
:1006D00094E8070098471034AC42F6D3FFF790FD3A
:1006E0007466000894660008202A06DBCB17203ABF
:1006F00041FA02F043EAE07306E041FA02F3D04027
:10070000C2F12002914008431946704710B5141EEB
:1007100073F1000408DA401C41F1000192185B41BA
:100720001A4301D120F0010010BD2DE9F04D924691
:100730009B4611B1B1FA81F202E0B0FA80F22032A8
:100740009046FFF7E7FD04460F4640EA0A0041EAFB
:100750000B0153465A46084313D0114653EA010091
:1007600019D0C8F140025046FFF7E3FD05460E469A
:10077000504659464246FFF7CDFD084305D00120BB
:1007800004E020463946BDE8F08D0020054346EAE6
:10079000E0762C4337430A986305E40AA0EB08008F
:1007A0000022FD0A44EA47540A3002D500200146DF
:1007B000E9E7010510196941DDE9084500196941BA
:1007C000BDE8F04DA2E770B58C1810F8015B15F08C
:1007D000070301D110F8013B2A1106D110F8012BB3
:1007E00003E010F8016B01F8016B5B1EF9D12B07D8
:1007F00005D40023521E0DD401F8013BFAE710F88E
:10080000013BCB1A921C03E013F8015B01F8015B7A
:10081000521EF9D5A142D8D3002070BD00BFFEE71B
:100820000346042B15D007DC7BB1012B0ED0022B25
:100830000DD0032B12D10BE0202B0BD0212B0AD093
:10084000222B09D0232B09D107E008E007E006E0BE
:1008500005E004E003E002E001E000E000BF00BFCB
:10086000002070470020704710B500220449054859
:1008700003F0F1F90449034803F0E6F9002010BD44
:10088000000B002040020020E00A002070B5044662
:100890000D462146034803F0D7F9024803F0B0F9AA
:1008A000002070BD400200202DE9F04104460D46B5
:1008B00000260A48D0F89072D7F8140210B101202F
:1008C000BDE8F0812A462146044803F0C4F90348F4
:1008D00003F045FA06463046F2E7000040020020E9
:1008E000704710B54FF4004000F032F810BD70476B
:1008F00070B50A480468001D0568001D0668344488
:1009000054B108220649204602F075FB042204492E
:100910001031284602F06FFB70BD000020F4F01F7C
:100920004600002070B5044600F032F90646254620
:10093000681C10B104480078054400BF00F028F995
:10094000801BA842FAD370BD7800002070470000D9
:1009500010B5044604480068204020B102480460F5
:100960002046FFF7F3FF10BD143C0140F8B50246E6
:100970000B46002100250024002000BFE4E00126F2
:1009800006FA01F51E6806EA0504AC4271D15E68FC
:10099000022E02D05E68122E13D1CF0802F120067B
:1009A00056F827004E07F70E0F26BE40B0434F07FC
:1009B000FF0E1E69BE403043CF0802F1200646F804
:1009C000270010684F000326BE40B0431E7906F092
:1009D00003064F00BE40304310605E68012E08D011
:1009E0005E68022E05D05E68112E02D05E68122E5F
:1009F00013D190684F000326BE40B0434F00DE681D
:100A0000BE4030439060506801268E40B0431E794E
:100A1000C6F300168E4030435060D0684F00032666
:100A2000BE40B0434F009E68BE403043D0605E6819
:100A300006F08056B6F1805FA8D100BF444E3668FC
:100A400046F48046424F3E603E46366806F4804695
:100A5000009600BF00BF3F4E8F0856F827008E0754
:100A6000370F0F26BE40B0433B4EB24202D10026A4
:100A70002EE068E0394EB24201D1012628E0384E1E
:100A8000B24201D1022623E0364EB24201D1032602
:100A90001EE0354EB24201D1042619E0334EB24277
:100AA00001D1052614E0324EB24201D106260FE0F4
:100AB000304EB24201D107260AE02F4EB24201D198
:100AC000082605E02D4EB24201D1092600E00A2693
:100AD0008F073F0FBE4030431E4E8F0846F8270059
:100AE000274E3068A0435E6806F48036B6F5803F36
:100AF00000D12043224E3060361D3068A0435E682E
:100B000006F40036B6F5003F00D120431C4E361DDA
:100B10003060361D3068A0435E6806F48016B6F576
:100B2000801F00D12043164E08363060361D3068D5
:100B3000A0435E6806F40016B6F5001F00D12043FE
:100B40000F4E0C363060491C1029FFF418AFF8BD69
:100B500044380240083801400000024000040240CE
:100B600000080240000C0240001002400014024045
:100B700000180240001C02400020024000240240F5
:100B8000003C01400AB1816101E00B0483617047C0
:100B900001480068704700007000002003480068AA
:100BA0000349097808440149086070477000002033
:100BB0007800002010B5032000F09CF8002000F021
:100BC00005F800F029F8002010BD000070B50446BB
:100BD0000E4800784FF47A71B1FBF0F00C490968C7
:100BE000B1FBF0F5284602F007F808B1012070BD0E
:100BF000102C07D200222146501E00F03DF8054877
:100C0000046001E00120F2E70020F0E77800002016
:100C10007C0000207400002008B500BF0D4800686B
:100C200040F080500B4908600846006800F0805092
:100C3000009000BF00BF00BF081D006840F4804066
:100C4000091D08600846006800F48040009000BF5D
:100C500000BF08BD4038024001460846002809DBB5
:100C600000F01F0301229A4043099B0003F1E02397
:100C7000C3F8002100BF70472DE9F05F80460D46A4
:100C80001646002704F034FF074639462A46334605
:100C900001F00700C0F1070ABAF1040F02D94FF0C2
:100CA000040A01E0C0F1070AD14600F1040ABAF1D2
:100CB000070F02D24FF0000A01E0A0F1030AD44668
:100CC0004FF0010A0AFA09FAAAF1010A0AEA020A2D
:100CD0000AFA0CFA4FF0010B0BFA0CFBABF1010B0B
:100CE0000BEA030B4AEA0B042146404604F008FFD6
:100CF000BDE8F09F00BF00F00702064B19684FF6F1
:100D0000FF031940044B0B4343EA0221014B1960D6
:100D100000BF70470CED00E00000FA0501460A68CC
:100D20000120C1F8FC03002081F8F403906940F031
:100D300000609061506D024B184350650020704771
:100D40000300001070B504460D4615B1012D2CD1DD
:100D500016E0206A38B102F0E9FC1548006820F07E
:100D60000600134908602068D0F8000E20F001004A
:100D70002168C1F8000ED4F8000403F05DFC14E013
:100D80002068D0F8000E40F001002168C1F8000E84
:100D9000D4F8000403F0D8FC206A28B104480068A5
:100DA00040F006000249086000BF00BF70BD0000AF
:100DB00010ED00E002461068416200207047F0B577
:100DC000034615461868446A21B944EA05401E687E
:100DD000B06219E01868806A04EB1044002208E051
:100DE000186800F5827050F8220004EB1044501C83
:100DF000C2B2481E9042F3D844EA0547186800F58D
:100E000082704E1E40F826700020F0BD10B50446DA
:100E1000D4F8000403F043FB10BD70B504460D4642
:100E2000C5EBC50304F13C0101EB8301CA68294607
:100E3000D4F8000403F060FA70BD70B504460D46A6
:100E4000C5EBC50304F5FE7101EB8301CA682946B1
:100E5000D4F8000403F0D0FA70BD10B50446D4F8FD
:100E6000000403F01FFB10BD70B504460E4606F0EB
:100E7000800080280AD106F00F00C0EBC00104F109
:100E80003C0000EB81050120687009E006F00F00CE
:100E9000C0EBC00104F5FE7000EB81050020687016
:100EA00006F00F00287000BF94F8BC03012801D1A0
:100EB000022070BD012084F8BC0300BF29462068D1
:100EC00003F0E4FF00BF002084F8BC0300BF00BFB4
:100ED000EFE770B504460E4606F00F0061688842E1
:100EE00001D9012070BD06F0800080280AD106F0EB
:100EF0000F00C0EBC00104F13C0000EB81050120B4
:100F0000687009E006F00F00C0EBC00104F5FE7048
:100F100000EB8105002068700020A87006F00F002B
:100F2000287000BF94F8BC03012801D10220D9E742
:100F3000012084F8BC0300BF2946206804F04CFA65
:100F400000BF002084F8BC0300BF00BFCAE7024610
:100F500001F00F00C0EBC00302F5FE7000EB830050
:100F6000806970472DE9F04705460E4690461F46BA
:100F70004FF0000906F0800080280AD106F00F002B
:100F8000C0EBC00105F13C0000EB81040120607062
:100F900009E006F00F00C0EBC00105F5FE7000EBA4
:100FA00081040020607006F00F002070C4F80880F3
:100FB000E770607808B12078E080022F01D100202E
:100FC000207100BF95F8BC03012802D10220BDE8C2
:100FD000F087012085F8BC0300BF2146286803F094
:100FE00067FE00BF002085F8BC0300BF4846EEE75F
:100FF0002DE9F04104460E461746984606F00F00CC
:10100000C0EBC00104F5FE7000EB8105EF60C5F890
:1010100014800020A861687006F00F002870206915
:10102000012800D12F6106F00F0028B9227C294643
:10103000206804F0B9F804E0227C2946206804F016
:101040005FFA0020BDE8F08170B504460D4605F05A
:101050000F006168884201D9012070BD05F0800051
:1010600080280AD105F00F00C0EBC00104F13C005C
:1010700000EB81060120707007E0C5EBC50104F5A7
:10108000FE7000EB8106002070700120B07005F04A
:101090000F00307000BF94F8BC03012801D102207A
:1010A000DBE7012084F8BC0300BF3146206804F070
:1010B000DAF905F00F0028B9217C04F57172206877
:1010C00004F052F900BF002084F8BC0300BF00BF49
:1010D000C3E72DE9F04104460E461746984606F050
:1010E0000F00C0EBC00104F13C0000EB8105EF6094
:1010F000C5F814800020A8610120687006F00F0078
:1011000028702069012800D12F6106F00F0028B94E
:10111000227C2946206804F047F804E0227C294616
:10112000206804F0EDF90020BDE8F0812DE9FE4FC4
:10113000044620680290029D0026206804F0A1FB6E
:1011400000287DD1206804F0DBFB08B9BDE8FE8FE4
:10115000206804F0D5FB00F00200022805D12068C9
:10116000406900F0020021684861206804F0C8FB73
:1011700000F40020B0F5002F58D10026206804F0BC
:101180008FFB82464FE00AF00100002848D0F1B200
:10119000206804F0A8FB804608F0010048B1012156
:1011A00005F5306000EB461081603146204602F0C4
:1011B000C1F808F00800082809D13146204602F09D
:1011C00073F8082105F5306000EB4610816008F0E7
:1011D0001000102805D1102105F5306000EB4610F5
:1011E000816008F0200020280ED12069012805D157
:1011F00004F571720121206804F0B6F8202105F58C
:10120000306000EB4610816008F40050B0F5005FDC
:1012100006D14FF4005105F5306000EB46108160B7
:10122000761C4FEA5A0ABAF1000FACD1206804F0DC
:1012300067FB00F48020B0F5802F7CD1206800E0AF
:1012400037E204F023FB8246002686E00AF0010024
:1012500000287FD0F1B2206804F02CFB804608F013
:101260000100E8B306F00F0101208840019040F62C
:1012700034004159019821EA000040F634014851F8
:10128000012105F5106000EB4610816020690128FE
:1012900015D1C6EBC60104F13C0000EB8100C6EBA2
:1012A000C602C16804F13C0000EB82008068014482
:1012B000C6EBC60204F13C0000EB8200C160F1B253
:1012C0002046FFF7AAFD2069012810D146B9C6EBD8
:1012D000C60104F13C0000EB8100406900B900E068
:1012E00005E004F571720121206804F03DF808F072
:1012F0000800082805D1082105F5106000EB46100C
:10130000816008F01000102805D1102105F510604B
:1013100000EB4610816008F04000402805D14021D4
:1013200005F5106000EB4610816008F0020002280D
:1013300008D1022101E014E00CE005F5106000EB9B
:101340004610816008F08000802803D13146204695
:1013500002F0B0F8761C4FEA5A0ABAF1000F7FF497
:1013600075AF206804F0CCFA00F00040B0F1004FF7
:101370001CD140F60400405920F0010140F6040061
:10138000415194F8F403012807D1002084F8F403B4
:1013900000212046FFF7D6FC02E0204600F0BEFA0E
:1013A0002068406900F0004021684861206804F02E
:1013B000A7FA00F40060B0F5006F0ED140F6080007
:1013C000405900F0010010B1204600F0F3FA206807
:1013D000406900F4006021684861206804F090FAD8
:1013E00000F00060B0F1006F19D12068406900F092
:1013F00000602168486194F8F40368B9012084F81A
:10140000F4032068406DC0F38300C4F8F8030121A1
:101410002046FFF797FC02E0204600F0CBFA206858
:1014200004F06EFA00F48050B0F5805F72D140F69F
:101430000400405920F0010140F604004151102100
:10144000206804F0F3F9002726E04FF67F3105F518
:10145000106000EB4710816005F5106000EB47104D
:10146000006820F4001105F5106000EB47100160E2
:101470004FF67F3105F5306000EB4710816005F5D0
:10148000306000EB4710006820F4001105F5306073
:1014900000EB471001607F1C6068B842D5D840F669
:1014A0001C00405940F0011140F61C004151206BD6
:1014B00070B1D5F8840840F00B01C5F8841840F6E7
:1014C0004400405940F00B0140F6440041510FE008
:1014D00040F61400405942F22B01084340F6140133
:1014E0004851081F405940F00B014FF40160415131
:1014F000D5F8000820F4FE60C5F80008217C04F54A
:101500007172206803F030FF2068406900F4805059
:1015100021684861206804F0F3F900F40050B0F548
:10152000005F1CD1206803F02BFC206804F096F9C2
:1015300010B90021E16001E00321E16000F09EFEAE
:101540000090227B2068009904F02AFA204600F0DF
:10155000CDF92068406900F4005021684861206896
:1015600004F0CEF900F01000102846D12068806900
:1015700020F01000216888610298D0F8209009F0CE
:101580000F00C0EBC00104F5FE7000EB810BC9F346
:10159000434002281AD147F6F07009EA000030B340
:1015A000C9F30A12DBF80C10029804F0AEF9C9F383
:1015B0000A11DBF80C000844CBF80C00C9F30A113F
:1015C000DBF818000844CBF8180010E0C9F34340DA
:1015D00006280CD1082204F57171029804F095F9DF
:1015E000C9F30A11DBF818000844CBF8180020688A
:1015F000806940F0100021688861206804F080F95B
:1016000000F00800082808D1204600F08EF9206874
:10161000406900F0080021684861206804F070F912
:1016200000F48010B0F5801F09D1F1B2204600F01F
:1016300042F82068406900F4801021684861206801
:1016400004F05EF900F40010B0F5001F09D1F1B20A
:10165000204600F039F82068406900F40010216845
:101660004861206804F04CF900F08040B0F1804FF0
:1016700008D12046FFF7CAFB2068406900F080408F
:1016800021684861206804F03BF900F00400042858
:101690000FD12068D0F8049009F00400042802D18A
:1016A0002046FFF7DAFB2068406840EA090021681D
:1016B000486000BF4AE570B504460D462946D4F897
:1016C000000402F055FF70BD70B504460D46294672
:1016D000D4F8000402F04FFF70BD30B58BB0044663
:1016E00014B901200BB030BD94F8BD0328B9002017
:1016F00084F8BC03204600F0A3F8032084F8BD035F
:10170000206803F049FD282204F110016846FEF725
:10171000C0FD94E80F0003F057FB20B1022084F8CD
:10172000BD030120DEE70021206804F0FFF800255A
:1017300031E00121C5EBC50204F13C0000EB820061
:101740004170C5EBC50104F13C0000F82150C5EB28
:10175000C50100EB8100C5800021C5EBC50204F185
:101760003C0000EB8200C170C5EBC50204F13C00F7
:1017700000EB82008160C5EBC50204F13C0000EB88
:101780008200C160C5EBC50204F13C0000EB8200A1
:101790004161681CC5B26068A842CAD800252AE029
:1017A0000021C5EBC50204F5FE7000EB820041701C
:1017B000C5EBC50104F5FE7000F821500021C5EB12
:1017C000C50200EB8200C170C5EBC50204F5FE70D6
:1017D00000EB82008160C5EBC50204F5FE7000EBF2
:1017E0008200C160C5EBC50204F5FE7000EB82000B
:1017F0004161681CC5B26068A842D1D8282204F1B2
:1018000010016846FEF745FD94E80F0003F0C0FBA9
:1018100020B1022084F8BD03012063E7002084F892
:101820003800012084F8BD03606A012802D12046F7
:10183000FFF774FA206803F09BFB002052E70000DA
:1018400010B588B00446142103A8FEF73BFD2068BC
:10185000B0F1A04F44D100BF2248006840F0010021
:10186000204908600846006800F00100029000BFAF
:1018700000BF4FF4C0500390022004900020059058
:10188000032006900A20079003A91748FFF76EF877
:1018900000BF1448001D006840F080001149091D78
:1018A00008600846006800F08000029000BF00BF9A
:1018B0000C481430006840F480400A491431086034
:1018C0000846006800F48040019000BF00BF00BFE0
:1018D000002211464320FFF7CFF94320FFF7BCF960
:1018E00008B010BD303802400000024070B5044618
:1018F0000125E06808B9002506E0E068022801D16A
:10190000012501E0FEF7F3FF2946D4F8000402F0B8
:10191000ABFED4F8000402F061FE70BD10B50446C1
:10192000D4F8000402F088FE10BD10B50446D4F8C7
:10193000000402F088FE10BD70B504460D4600BFDD
:1019400094F8BC03012801D1022070BD012084F865
:10195000BC0300BF84F838502946206804F001F821
:1019600000BF002084F8BC0300BF00BFEDE710B546
:10197000044604F57171D4F8000402F08CFE10BD29
:1019800010B5044600BF94F8BC03012801D1022021
:1019900010BD012084F8BC0300BF206803F0D8FA12
:1019A000206803F025FF00BF002084F8BC0300BFBF
:1019B00000BFEDE710B50446D4F8000402F0C4FE01
:1019C0002068D0F8000E40F001002168C1F8000E38
:1019D000206A28B10348006840F006000149086009
:1019E00010BD000010ED00E02DE9F843044600268C
:1019F00000250027A846A946207800F0010088B1FC
:101A000000BFFE48006820F40000FC49086008465A
:101A10000068616B0843F949086000BF606B08B952
:101A20004FF00108206800F40020B0F5002F13D11A
:101A3000F2488430006820F44010E16B0843EF491D
:101A400084310860E06BB0F5801F01D14FF00108D0
:101A5000E06B08B94FF00109206800F48010B0F580
:101A6000801F13D1E5488430006820F44000216CC9
:101A70000843E24984310860206CB0F5800F01D141
:101A80004FF00108206C08B94FF00109206800F000
:101A90008070B0F1807F01D14FF00108207800F014
:101AA0002000202870D100BFD4483830006840F0B2
:101AB0008050D249383108600846006800F08050F4
:101AC000009000BF00BFCE48006840F48070CC4951
:101AD0000860FFF75DF8064607E0FFF759F8801B3E
:101AE000642802D90320BDE8F883C548006800F4E3
:101AF00080700028F1D0C1486830006800F440755B
:101B000085B3208E00F44070A8422BD0BB486830CB
:101B1000006820F44075B9486830006840F48030AF
:101B2000B649683108600846006820F480300860D3
:101B300008460560006800F0010098B1FFF728F83A
:101B4000064608E0FFF724F8801B41F288318842FE
:101B500001D90320C7E7A94868300068C0F34000F6
:101B60000028EFD000BF208E00F44070B0F5407F19
:101B70000BD1A248006820F4F810A24A216B114052
:101B800008439E49086006E010E09C48006820F485
:101B9000F8109A490860994868300068218EC1F3AE
:101BA0000B01084395496831086000BF207800F0B8
:101BB0001000102810D100BF90488430006820F039
:101BC00080708E498431086008460068A16B084324
:101BD0008A498431086000BF208800F48040B0F555
:101BE000804F09D185488830006820F44030616E0C
:101BF0000843824988310860208800F40040B0F52D
:101C0000004F09D17D488830006820F44020A16E43
:101C100008437A4988310860206800F48030B0F5C4
:101C2000803F09D175488830006820F44010E16E8B
:101C30000843724988310860206800F40030B0F52C
:101C4000003F09D16D488830006820F44000216FC2
:101C500008436A4988310860207800F04000402835
:101C600009D166488830006820F00300616C0843A1
:101C7000624988310860207800F08000802809D10E
:101C80005E488830006820F00C00A16C08435B4976
:101C900088310860208800F48070B0F5807F09D119
:101CA00056488830006820F03000E16C0843534902
:101CB00088310860208800F40070B0F5007F09D1F9
:101CC0004E488830006820F0C000216D08434B4921
:101CD00088310860208800F48060B0F5806F09D1F9
:101CE00046488830006820F44070616D08434349DD
:101CF00088310860208800F40060B0F5006F09D1D9
:101D00003E488830006820F44060A16D08433B499C
:101D100088310860208800F48050B0F5805F09D1D8
:101D200036488830006820F44050E16D084333495C
:101D300088310860208800F40050B0F5005F09D1B8
:101D40002E488830006820F44040216E08432B491B
:101D500088310860206800F48000B0F5800F09D158
:101D600026488830006820F08060A16F084323492E
:101D700088310860206800F40010B0F5001F0FD112
:101D80001E488830006820F00060E16F08431B495E
:101D900088310860E06FB0F1006F01D14FF00109A8
:101DA000206800F48020B0F5802F09D113488830D6
:101DB000006820F04070616F084310498831086066
:101DC000206800F40000B0F5000F0AD10B488830FD
:101DD000006820F08050D4F880100843074988310B
:101DE0000860206800F08060B0F1806F11D1034876
:101DF0008830006820F0005006E0000008380240FB
:101E000000700040FFFCFF0FD4F884100843B6496F
:101E10000860206800F00060B0F1006F0AD1B2489D
:101E2000001F006820F00070D4F888100843AE4905
:101E3000091F0860206800F08050B0F1805F0AD16F
:101E4000A948001F006820F08060D4F88C10084377
:101E5000A549091F0860B8F1010F03D02068B0F14F
:101E6000007F7DD1A0489038006820F080609E49B6
:101E700090390860FEF78CFE064606E0FEF788FE05
:101E8000801B642801D903202DE69748903800680C
:101E9000C0F3C0600028F1D1207800F00100B8B193
:101EA000606BA8B990480C380068C0F301458E48B3
:101EB0000C380068C0F303676068800140EA0540A1
:101EC00040EA0761207A41EA007087490C390860CE
:101ED000206800F40020B0F5002F03D1E06BB0F5CE
:101EE000801F09D0206800F48010B0F5801F24D135
:101EF000206CB0F5800F20D17B480C380068C0F30F
:101F0000014579480C380068C0F3027760688001A9
:101F100040EA0541207B41EA006040EA07707249CF
:101F20000C3908607048001F006820F01F00616ACB
:101F3000491E08436C49091F0860206800F0807042
:101F4000B0F1807F17D168480C380068C0F3036592
:101F500065480C380068C0F302776068810100E0D2
:101F600037E0208A41EA004040EA056040EA077015
:101F70005D490C390860206800F00070B0F1007F06
:101F80000DD160688101208A41EA0041207B41EA4D
:101F90000061207A41EA007053490C3908605248C8
:101FA0009038006840F080604F4990390860FEF733
:101FB000EFFD064606E0FEF7EBFD801B642801D925
:101FC000032090E5484890380068C0F3C0600028BE
:101FD000F1D0B9F1010F76D143489038006820F074
:101FE0008050414990390860FEF7D2FD064606E070
:101FF000FEF7CEFD801B642801D9032073E53A4823
:1020000090380068C0F340700028F1D1206800F4D7
:102010000020B0F5002F01D1E06B38B1206800F44A
:102020008010B0F5801F22D1206C00BB2E480838EC
:102030000068C0F301452C4808380068C0F30277F7
:102040006069800140EA0541207E41EA006040EA83
:102050000770254908390860081D006820F4F85108
:10206000A06A401E41EA00201F49091F086020683D
:1020700000F40010B0F5001F19D1E06FB0F1006F4F
:1020800015D1194808380068C0F3036516480838A8
:102090000068C0F3027760698101208C41EA00404A
:1020A00040EA056040EA07700F49083908600E48A9
:1020B0009038006840F080500B4990390860FEF776
:1020C00067FD064607E00DE0FEF762FD801B642811
:1020D00001D9032007E5044890380068C0F3407038
:1020E0000028F1D00020FEE49038024070B504468C
:1020F0000D4600260CB9012070BD5C48006800F058
:102100000F00A8420ED25948006820F00F00284363
:10211000564908600846006800F00F00A84201D048
:102120000120E9E7207800F0020002281DD1207884
:1021300000F00400042805D14D48006840F4E05048
:102140004B490860207800F00800082805D148486D
:10215000006840F46040464908604548006820F047
:10216000F000A168084342490860207800F00100AF
:1021700090B36068012807D13D4808380068C0F373
:102180004040A0B90120B7E76068022807D138486D
:1021900008380068C0F3406048B90120ACE7344813
:1021A00008380068C0F3400008B90120A4E73048AF
:1021B000006820F00300616808432D490860FEF7BD
:1021C000E7FC064609E0FEF7E3FC801B41F288319C
:1021D000884202D903208FE707E02548006800F015
:1021E0000C006168B0EB810FEDD12048006800F071
:1021F0000F00A8420ED91D48006820F00F002843A8
:102200001A4908600846006800F00F00A84201D093
:10221000012071E7207800F00400042807D1144859
:10222000006820F4E050E168084311490860207814
:1022300000F00800082808D10D48006820F460402C
:10224000216940EAC1000A49086000F01DF8084908
:102250000968C1F30311074A515CC8400649086088
:102260000020FEF7B3FC002046E70000003C0240DF
:10227000083802405C6600087C00002001480068C5
:10228000704700007C0000202DE9F0470024002565
:102290000026A1462548006800F00C0020B1042863
:1022A00005D008283AD105E0DFF8849039E0DFF85E
:1022B000849036E01D48001F006800F03F041B4872
:1022C000001F006800F4800078B11A481749091F00
:1022D0000968C1F38811A0FB017001462246002362
:1022E0003846FDF7A5FF05460EE011480F49091FC6
:1022F0000968C1F38811A0FB017001462246002342
:102300003846FDF795FF05460848001F0068C0F3F2
:102310000140401C4600B5FBF6F902E0DFF81090E2
:1023200000BF00BF4846BDE8F08700000838024003
:102330000024F40000366E01F8B5044600260CB9FE
:102340000120F8BD207800F00100002871D0F84885
:10235000006800F00C0004280DD0F548006800F07B
:102360000C00082813D1F248001F006800F4800018
:10237000B0F5800F0BD1EE4808380068C0F340403C
:10238000002869D06068002866D10120D9E700BF25
:102390006068B0F5803F08D1E5480838006840F42F
:1023A0008030E349083908602EE0606868B9E04889
:1023B0000838006820F48030DD4908390860084694
:1023C000006820F4802008601EE06068B0F5A02F4F
:1023D0000DD1D7480838006840F48020D449083926
:1023E00008600846006840F4803008600CE0D0487F
:1023F0000838006820F48030CD4908390860084664
:10240000006820F48020086000BF606890B1FEF78B
:10241000BFFB054606E0FEF7BBFB401B642801D965
:1024200003208EE7C24808380068C0F34040002807
:10243000F1D011E0FEF7ACFB054606E0FEF7A8FB85
:10244000401B642801D903207BE7B948083800689D
:10245000C0F340400028F1D1207800F002000228AB
:1024600069D1B348006800F00C0058B1B04800686A
:1024700000F00C0008281CD1AD48001F006800F4D3
:102480008000B0B9AA4808380068C0F3400020B105
:10249000E068012801D0012053E7A548083800680A
:1024A00020F0F800216940EAC100A149083908601C
:1024B00041E0E06828B39E480838006840F0010019
:1024C0009B4908390860FEF763FB054606E0FEF706
:1024D0005FFB401B022801D9032032E794480838EB
:1024E0000068C0F340000028F1D091480838006827
:1024F00020F0F800216940EAC1008D4908390860E0
:1025000019E08B480838006820F001008849083934
:102510000860FEF73DFB054606E0FEF739FB401B71
:10252000022801D903200CE7814808380068C0F36D
:1025300040000028F1D1207800F00800082836D1AA
:102540006069D0B17A486C30006840F00100784989
:102550006C310860FEF71CFB054606E0FEF718FB31
:10256000401B022801D90320EBE671486C3000685B
:10257000C0F340000028F1D019E06D486C300068CD
:1025800020F001006A496C310860FEF701FB054646
:1025900006E0FEF7FDFA401B022801D90320D0E631
:1025A00063486C300068C0F340000028F1D1207807
:1025B00000F00400042874D15D483830006800F051
:1025C000805080B900BF5A483830006840F08050D1
:1025D0005749383108600846006800F08050009084
:1025E00000BF00BF01265348006800F48070B0B9F6
:1025F0005048006840F480704E490860FEF7C8FA01
:10260000054606E0FEF7C4FA401B642801D9032002
:1026100097E64848006800F480700028F2D000BFB8
:10262000A068012808D142486830006840F00100E5
:102630003F49683108602DE0A06868B93C486830BF
:10264000006820F001003A496831086008460068D7
:1026500020F0040008601DE0A06805280DD1344872
:102660006830006840F0040031496831086008466D
:10267000006840F0010008600CE02D4868300068F8
:1026800020F001002A49683108600846006820F0FF
:102690000400086000BFA068A8B1FEF779FA0546FB
:1026A00009E02EE0FEF774FA401B41F288318842BF
:1026B00001D9032045E61E4868300068C0F3400099
:1026C0000028EFD013E0FEF763FA054608E0FEF7B6
:1026D0005FFA401B41F28831884201D9032030E67D
:1026E000134868300068C0F340000028EFD1012E85
:1026F00007D10F483830006820F080500C4938313D
:102700000860A069F0B30A48006800F00C000828CF
:1027100068D0A06902284DD105480838006820F02B
:102720008070034908390860FEF732FA05460AE06E
:102730000838024000700040FEF72AFA401B0228C9
:1027400001D90320FDE529480068C0F34060002856
:10275000F2D1D4E907010843616A40EA81110122FC
:10276000A06AC2EB500041EA00412C20005D41EA22
:1027700000613020005D41EA00701C49091D0860BD
:10278000081F00E030E0006840F08070091F08601A
:10279000FEF7FEF9054606E0FEF7FAF9401B0228AF
:1027A00001D90320CDE511480068C0F3406000283E
:1027B000F2D019E00D48006820F080700B490860E5
:1027C000FEF7E6F9054606E0FEF7E2F9401B0228AF
:1027D00001D90320B5E505480068C0F34060002832
:1027E000F2D101E00120ACE50020AAE5003802406A
:1027F00070B504460CB9012070BD606A00B900BF15
:102800000021A16294F85D0028B9002084F85C00E2
:10281000204600F053F8022084F85D00206800682C
:1028200020F0400021680860E068B0F5E06F01D951
:10283000002501E04FF48055E068B0F5706F05D0D9
:10284000E068B0F5E06F01D00021A162206B40B9D3
:10285000E068B0F5E06F02D90221216301E00121B7
:102860002163D4E9010108432169084361690843F0
:10287000218B01F400710843E1690843216A084390
:10288000A16A0843216808600421A06901EA104098
:10289000616A0843616B0843E16808432843216883
:1028A00048602068C06920F400602168C861002089
:1028B0002066012084F85D0000209DE710B586B0F9
:1028C0000446142101A8FDF7FDFC1949206888423F
:1028D0002BD100BF1748006840F40050154908602C
:1028E0000846006800F40050009000BF00BF00BF21
:1028F00010481438006840F010000E491439086080
:102900000846006800F01000009000BF00BF64207F
:1029100001900220029000200390032004900520E3
:10292000059001A90448FEF721F806B010BD00008B
:102930000034014044380240001002402DE9FF5F9E
:102940000446894692461D460E9E012001900020B5
:10295000009000BF94F85C00012803D1022004B06D
:10296000BDE8F09F012084F85C0000BFFEF710F97D
:10297000074694F85D00029060680390A846AB4655
:10298000029801280BD00398B0F5827F04D1A0688B
:1029900010B90298042802D00220009022E1B9F177
:1029A000000F03D0BAF1000F00D015B9012000903C
:1029B00018E194F85D00042802D0052084F85D0039
:1029C00000202066C4F840A0A4F84650A4F8445063
:1029D000C4F83890E587A587E0642065E068B0F525
:1029E000E06F02D8BBF1010F06D92068406820F4DF
:1029F00080502168486005E02068406840F48050BD
:102A0000216848602068006800F04000402805D038
:102A10002068006840F0400021680860E068B0F578
:102A2000E06F4ED9606810B1B8F1010F09D1A06B09
:102A300000882168C860A06B801CA063E08F401EE6
:102A4000E08736E02068806800F00200022810D19C
:102A5000E08F70B1019801280BD1A06B008821682C
:102A6000C860A06B801CA063E08F401EE087002040
:102A700001902068806800F0010080B1B4F8460041
:102A800068B12068C068216C0880206C801C2064BC
:102A9000B4F84600401EA4F8460001200190FEF75D
:102AA00077F8C01BB04204D3701C10B10320009013
:102AB00098E0E08F0028C5D1B4F846000028C1D1C5
:102AC00085E0606810B1B8F1010F17D1E08F0128DF
:102AD0000AD9A06B00882168C860A06B801CA06325
:102AE000E08F801EE08709E0A06B00782168087302
:102AF000A06B401CA063E08F401EE08760E0206870
:102B0000806800F0020002281ED1E08FE0B1019839
:102B1000012819D1E08F01280AD9A06B008821680B
:102B2000C860A06B801CA063E08F801EE08709E076
:102B3000A06B007821680873A06B401CA063E08F35
:102B4000401EE087002001902068806800F00100AE
:102B500058B3B4F8460040B3B4F84600012816D97B
:102B60002068C068216C0880206C801C2064B4F848
:102B70004600801EA4F84600B4F84600012812D88A
:102B80002068406840F48050216848600BE020686D
:102B9000007B216C0870206C401C2064B4F8460057
:102BA000401EA4F8460001200190FDF7F1FFC01B74
:102BB000B04201D3701C00B916B90320009011E097
:102BC000E08F00289BD1B4F84600002897D13A4600
:102BD0003146204600F0CAFC18B1012000902020A8
:102BE000206600BF012084F85D0000BF002084F84B
:102BF0005C0000BF0098B2E670B504462546681E2A
:102C0000B0F1807F01D301200FE0681E4FF0E0217A
:102C100048610F214FF0FF3002F072FF00204FF0AB
:102C2000E021886107200861002070BD704770476F
:102C30007047000030B502460B4600BF92F83C00DA
:102C4000012801D1022030BD012082F83C0000BFE4
:102C5000022082F83D001068416810688468114DB8
:102C60001068A84203D0104D1068A84203D121F487
:102C700070015868014321F070011868014324F085
:102C800080049868044310684160106884600120E3
:102C900082F83D0000BF002082F83C0000BF00BF6A
:102CA000D1E70000000001400004014010B50446D7
:102CB0000CB9012010BD94F83D0028B9002084F81B
:102CC0003C00204600F00CF8022084F83D00211D55
:102CD000206800F0D9FD012084F83D000020E9E7DC
:102CE00038B504460D492068884215D100BF0C480C
:102CF000006840F001000A4908600846006800F0DA
:102D00000100009000BF00BF002211461920FDF70E
:102D1000B3FF1920FDF7A0FF38BD000000000140FF
:102D2000443802402DE9F04104460D4600BF94F8B6
:102D30003C00012802D10220BDE8F081012084F886
:102D40003C0000BF022084F83D00206886683748B8
:102D5000064026F47F46206886602868502833D0D5
:102D60000CDC202850D004DC00284BD0102851D196
:102D700049E0302849D040284CD139E060282DD096
:102D8000702807D0B0F5805F03D0B0F5005F41D167
:102D90000DE040E0D5E902136A68206800F0E0FD2C
:102DA0002068866846F077062068866033E0D5E9BB
:102DB00002136A68206800F0D3FD2068806840F440
:102DC00080402168886026E0EA686968206800F031
:102DD000DBFD5021206800F0CEFD1CE0EA68696848
:102DE000206800F0E4FD6021206800F0C4FD12E0DE
:102DF000EA686968206800F0C7FD4021206800F09B
:102E0000BAFD08E000BF00BF00BF2968206800F0DD
:102E1000B2FD00E000BF00BF012084F83D0000BF0C
:102E2000002084F83C0000BF00BF85E788FFFEFF5C
:102E3000704710B5044620680069C0F34000D8B15F
:102E40002068C068C0F34000B0B16FF00200216894
:102E50000861012020772068806900F0030018B124
:102E60002046FFF7E5FF05E0204600F0BEF82046CB
:102E700000F0BCF80020207720680069C0F38000D3
:102E8000D8B12068C068C0F38000B0B16FF0040012
:102E900021680861022020772068806900F4407072
:102EA00018B12046FFF7C4FF05E0204600F09DF86A
:102EB000204600F09BF80020207720680069C0F3CE
:102EC000C000D8B12068C068C0F3C000B0B16FF0D6
:102ED000080021680861042020772068C06900F09C
:102EE000030018B12046FFF7A3FF05E0204600F0DD
:102EF0007CF8204600F07AF80020207720680069EE
:102F0000C0F30010D8B12068C068C0F30010B0B1A1
:102F10006FF0100021680861082020772068C069E0
:102F200000F4407018B12046FFF782FF05E020460C
:102F300000F05BF8204600F059F800202077206868
:102F4000006900F0010058B12068C06800F001007D
:102F500030B16FF0010021680861204600F047F8A9
:102F600020680069C0F3C01058B12068C068C0F381
:102F7000C01030B16FF08000216808612046FFF773
:102F800056FE20680069C0F3002058B12068C06870
:102F9000C0F3C01030B16FF4807021680861204622
:102FA000FFF744FE20680069C0F3801058B1206824
:102FB000C068C0F3801030B16FF040002168086134
:102FC000204600F015F820680069C0F3401058B1A1
:102FD0002068C068C0F3401030B16FF02000216855
:102FE00008612046FFF724FE10BD70477047704708
:102FF000704700BFFEE730B50B46002100BF16E06A
:103000000A24B4EB107F05D9302404EB107403F8C4
:10301000114005E0412404EB10740A3C03F8114010
:10302000000100254C00641C1D554C1CE1B291426E
:10303000E6DB30BD00B587B0142102A8FDF742F9E8
:1030400000BF4B48006840F010004949086008463E
:10305000006800F01000019000BF00BF00BF0846EC
:10306000006840F0800008600846006800F08000BA
:10307000019000BF00BF00BF0846006840F0040098
:1030800008600846006800F00400019000BF00BF1F
:1030900000BF0846006840F0080008600846006865
:1030A00000F00800019000BF00BF00BF08460068A4
:1030B00040F0010008600846006800F0010001903F
:1030C00000BF00BF012210212A48FDF75BFD01224D
:1030D00008212948FDF756FD012280212748FDF7E8
:1030E00051FD102002901120039001200490002037
:1030F000059002A91F48FDF739FC08200290012025
:10310000039000200490059002A91B48FDF72EFCB7
:103110004FF4004002901A4803900020049002A946
:103120001648FDF723FC4FF4C05002900220039094
:1031300000200490032005900C20069002A90E4860
:10314000FDF714FC802002900120039000200490E1
:10315000059002A90948FDF709FC00221146282024
:10316000FDF78AFD2820FDF777FD07B000BD0000C0
:10317000303802400010024000080240000C0240BB
:103180000000111010B51148114908604FF4827009
:10319000486000210E4881604FF47061C1600221D7
:1031A000016101214161490281612021C161002148
:1031B0000162416281620721C162002101634163B2
:1031C000FFF716FB08B1FDF792FB10BD003401407C
:1031D0009C01002000B587B000200390049005906A
:1031E00006900090019002901448154908603F2015
:1031F00048600021124881600921C16000210161FD
:1032000041618161FFF752FD08B1FDF770FB4FF49A
:103210008050039003A90A48FFF784FD08B1FDF729
:1032200066FB002000900190029069460448FFF779
:1032300001FD08B1FDF75BFB07B000BD00000140D8
:103240000002002010B500220D490E4801F015F8CB
:1032500008B1FDF74CFB0C490A4801F0ABFA08B184
:10326000FDF745FB0949074800F0E7FC08B1FDF709
:103270003EFB044801F068FB08B1FDF738FB10BDC8
:10328000000000204002002090000020600000208C
:1032900000BFFEE77047000010B50248FDF746FF8B
:1032A00010BD0000DC0400202DE9F04705460C4667
:1032B0002F683E46D7F8408006F5306000EB44109A
:1032C000D0F80890286901280FD1184880451BD9EB
:1032D00009F40040B0F5004F16D14FF4004106F557
:1032E000306000EB441081600EE0114880450BD146
:1032F00009F40040B0F5004F06D14FF4004106F547
:10330000306000EB441081602846FEF730FB074830
:10331000804508D92869012805D105F57172012178
:10332000286802F021F80020BDE8F0870A30544FE9
:103330000A31544F2DE9F04705460C46D5F8008078
:103340004646D8F8409006F5306000EB4410876898
:10335000286901287ED107F0080008281ED15348AB
:1033600081450BD907F40040B0F5004F06D14FF46A
:10337000004106F5306000EB441081602846FEF7FE
:10338000F6FA05F571720121286801F0EDFF0821B8
:1033900006F5306000EB4410816083E007F0200008
:1033A000202806D1202106F5306000EB4410816012
:1033B00078E007F02800002874D13C4881450CD9FA
:1033C00007F40040B0F5004F07D14FF4004106F577
:1033D000306000EB4410816064E0C4EBC40105F58B
:1033E000FE7000EB8100816806F5306000EB441050
:1033F0000069C0F31200091AC4EBC40205F5FE709F
:1034000000EB82008161C4EBC40105F5FE7000EBA6
:103410008100C4EBC402C16805F5FE7000EB8200B8
:1034200080680144C4EBC40205F5FE7000EB820025
:10343000C160E1B22846FDF700FDFCB9C4EBC40150
:1034400005F5FE7000EB81004069B8B905F57172B1
:10345000012100E003E0286801F086FF22E0144823
:1034600081451BD107F40040B0F5004F07D14FF460
:10347000004106F5306000EB4410816012E007F077
:103480002000202805D1202106F5306000EB4410F3
:103490008160E1B22846FDF7D0FC03E0E1B22846A6
:1034A000FDF7CBFC0020BDE8F08700000A30544F48
:1034B0000A31544F2DE9F84F07460E46D7F80090D1
:1034C000C846C6EBC60107F13C0000EB8104D4E915
:1034D0000510884202D90120BDE8F88FD4E9050122
:1034E000451AA068A84200D2A568E81C4FEA900AD5
:1034F00017E0D4E90501451AA068A84200D2A568E2
:10350000E81C4FEA900A387CABB2F2B20090484611
:10351000E16802F0B9FAE0682844E060A069284454
:10352000A06108F5106000EB4610806980B250453C
:1035300006D3D4E90510884202D260690028D8D1A8
:10354000D4E9050188420ED806F00F01012000FAE7
:1035500001FB40F6340050F8080020EA0B0040F66A
:10356000340141F808000020B6E77047F8B504467A
:103570000E461546334600224FF4C05120460095B2
:1035800000F026F828B1206E40F0200020660320CD
:10359000F8BD3346002280212046009500F06DF8EA
:1035A00028B1206E40F0200020660320F0E733466B
:1035B00000224FF4C0612046009500F009F828B1C0
:1035C000206E40F0200020660320E1E70020DFE7C6
:1035D0002DE9F04104460E4617461D46DDF81880D9
:1035E00044E0B6F5C06F02D10FB92068007B681CBB
:1035F000D8B3FDF7CDFAA0EB0800A84200D2A5BBD6
:103600002068406820F0E000216848606068B0F5FC
:10361000827F0DD1A068B0F5004F03D0A068B0F54F
:10362000806F05D12068006820F0400021680860A4
:10363000A06AB0F5005F0DD100BF2068006820F4DB
:103640000050216808602068006840F4005021683C
:10365000086000BF012084F85D0000BF002084F8EE
:103660005C0000BF0320BDE8F081FFE720688068B0
:103670003040B842B5D10020F5E72DE9F0410446CD
:103680000E4617461D46DDF818803EE0681CD8B38C
:10369000FDF77EFAA0EB0800A84200D2A5BB206887
:1036A000406820F0E000216848606068B0F5827FE3
:1036B0000DD1A068B0F5004F03D0A068B0F5806FC1
:1036C00005D12068006820F0400021680860A06AE9
:1036D000B0F5005F0DD100BF2068006820F40050F5
:1036E000216808602068006840F400502168086084
:1036F00000BF012084F85D0000BF002084F85C005A
:1037000000BF0320BDE8F081FFE7206880683040FB
:10371000B04201D1012000E00020B842B6D1002023
:10372000F0E7704710B5FDF739FA10BD10B500F09D
:1037300001F810BD00B5B7B034212AA8FCF7C2FDCE
:10374000142125A8FCF7BEFD902101A8FCF7BAFDC5
:1037500000BF2E48006840F080502C4908600846A1
:10376000006800F08050009000BF00BF00BF2848F4
:10377000006820F4404040F4804025490860084635
:10378000006800F44040009000BF00BF01202A9074
:1037900000042B900220309041052AA8C1610C2121
:1037A000016280214162022181620521C162FEF72E
:1037B000C3FD08B1FDF79BF80F202590022026904D
:1037C000002027904FF4A05028902990042125A88C
:1037D000FEF78CFC08B1FDF78AF84FF40010019059
:1037E0006020069002210891079101210991012092
:1037F0000B9000200C90C806209001A8FEF7F4F86A
:1038000008B1FDF774F837B000BD00004038024041
:10381000007000401448006840F4700012490860CD
:103820001248006840F001001049086000200F496C
:10383000083108600D4800680D4908400B490860D0
:103840000C48091D0860081F006820F48020091F2B
:103850000860002005490C3108604FF00060024903
:10386000803908607047000088ED00E000380240B1
:10387000FFFFF6FE1030002410B50248FFF7D9FA1A
:1038800010BD00000002002010B50268294B9842CC
:103890000ED0B0F1804F0BD0274B984208D0274B69
:1038A000984205D0264B984202D0264B984203D12D
:1038B00022F070024B681A431E4B984220D0B0F1A0
:1038C000804F1DD01C4B98421AD01C4B984217D0E9
:1038D0001B4B984214D01B4B984211D01A4B984264
:1038E0000ED01A4B98420BD0194B984208D0194B66
:1038F000984205D0184B984202D0184B984203D1F9
:1039000022F44072CB681A4322F080034C6943EAE8
:10391000040202608B68C3620B688362054B9842A5
:1039200002D0084B984201D10B6903630123436124
:1039300010BD0000000001400004004000080040ED
:10394000000C0040000401400040014000440140E0
:103950000048014000180040001C004000200040CA
:1039600030B50C46816821F47F4142EA03252543A6
:103970002943816030BD0A46816821F0700142F020
:10398000070319438160704730B50B461446026A3D
:10399000056A25F001050562816921F0F00141EA1F
:1039A000041122F00A021A438161026230BD30B56F
:1039B0000B461446056A25F0100505628169026A06
:1039C00021F4704141EA043122F0A00242EA0312DC
:1039D0008161026230BD2DE9F04104460D46D4F804
:1039E0009062D4F89872D4F8900278B305EB850110
:1039F00004F1140000EB8100806808B305EB850139
:103A000004F1140000EB8100C5EBC502816807F1E9
:103A10003C0000EB82008068B1FBF0F200FB12106A
:103A200070B9002105EB850204F1140000EB82005F
:103A3000816000231A462946204600F08FFE02E0EE
:103A40000020C6F814020020BDE8F081FFE7022044
:103A5000FAE770B504460E46D4F890523146204637
:103A600000F02DFDC5F80C02D4F8900248B1D5F84D
:103A70000402D4F89412CA6805F503719047002037
:103A800070BD0220FCE770B504460E46002581217A
:103A9000204600F01EFC0021E1620121204600F0DA
:103AA00018FC0021C4F858118221204600F011FCB6
:103AB00000212164D4F8900250B1D4F894124868DF
:103AC0008047D4F8900202F09DFC0020C4F89002D8
:103AD000284670BD70B50546D5F89042D5F89402D9
:103AE00078B194F80002FF280BD094F8012294F8E2
:103AF0000002D5F894128B6821469847FF2084F87D
:103B00000002002070BD000001460A200880014824
:103B100070470000840000200146432008800148CF
:103B2000704700000C010020014643200880014836
:103B300070470000C800002001464320088001486B
:103B400070470000500100202DE9F04104460F4667
:103B50000026207C88B94FF4007302228121204680
:103B600000F00CFD0121E1624B020222204600F030
:103B700005FD0121C4F858110FE0402302228121E4
:103B8000204600F0FBFC0121E16240230222204696
:103B900000F0F4FC0121C4F858110823032282210B
:103BA000204600F0EBFC012121644FF4077002F085
:103BB0001DFDC4F89002D4F8900208B901261CE05B
:103BC000D4F89052D4F89412086880470020C5F8C1
:103BD0001402C5F81802207C40B94FF4007301218B
:103BE0002046D5F8042200F0E1FC06E04023012144
:103BF0002046D5F8042200F0D9FC3046BDE8F0811B
:103C000070B50446D4F89052D4F8900298B1207C54
:103C100040B94FF4007301212046D5F8042200F08A
:103C2000C5FC06E0402301212046D5F8042200F01F
:103C3000BDFC002070BD0220FCE70246022011B14D
:103C4000C2F89412002070470246D2F89032C3F8AE
:103C500004120020704710B50346D3F89042C4F810
:103C60000812C4F81022002010BD2DE9FC410546C1
:103C70000C46D5F890620020019000900027207833
:103C800000F0600040B320285FD1E088E0B12078E8
:103C900000F0800060B1E2886078D5F894128B68FB
:103CA00031469847E2883146284600F0E6F812E0AF
:103CB000607886F80002A07986F80102E288314631
:103CC000284600F0B9F806E06078D5F89412002292
:103CD0008B68214698473EE0607820B10A2812D0D0
:103CE0000B282AD11FE095F87402032805D102227F
:103CF0006946284600F0C1F804E02146284600F055
:103D00008FF802271FE095F87402032805D10122DD
:103D100001A9284600F0B1F804E02146284600F049
:103D20007FF802270FE095F87402032804D021469B
:103D3000284600F075F8022705E02146284600F0E5
:103D40006FF8022700BF00BF05E02146284600F0BB
:103D500067F8022700BF00BF3846BDE8FC8170B598
:103D60000546D5F89042D5F89002A8B1D4F81402CF
:103D700080B90120C4F81402D4F810122963B4F8F1
:103D8000100283B281212846D4F8082200F0E6FC14
:103D9000002070BD0120FCE70220FAE770B5044660
:103DA0000D46D4F88C0229464268204690470020F0
:103DB00070BD70B504460D4694F87402012804D015
:103DC000022803D003280CD101E000BF00BF68889F
:103DD000012805D10020C4F87C02204600F05EF8DE
:103DE00004E02946204600F01BF800BF00BF70BD6C
:103DF00070B506460C4615462B4622460021304635
:103E000000F0D4FB002070BD70B506460C46154688
:103E10002B4622460021304600F0A0FC002070BD59
:103E200070B504460D468021204600F06BFC002151
:103E3000204600F067FC70BD70B504460E4615467E
:103E40000320C4F86C024FF4A4700551001D055105
:103E50002B4632460021204600F0A8FB002070BD12
:103E600010B504460520C4F86C0200231A46194612
:103E7000204600F09BFB002010BD70B504460E46A6
:103E800015460220C4F86C02E56125622B463246D5
:103E90000021204600F062FC002070BD10B50446F1
:103EA0000420C4F86C0200231A461946204600F08C
:103EB00055FC002010BD000070B505460C462DB91C
:103EC0002246064906A000F099F904E0224603497B
:103ED00003A000F093F9014870BD0000E008002045
:103EE00043444320436F6E66696700000246122018
:103EF00008800148704700002000002070B505468A
:103F00000C462DB92246064906A000F077F904E0D8
:103F10002246034903A000F071F9014870BD00007A
:103F2000E008002043444320496E74657266616373
:103F30006500000002460420088001487047000028
:103F40004000002070B505460C462246024903A0F9
:103F500000F054F9004870BDE008002077616E67FA
:103F6000667567756900000070B505460C462DB989
:103F70002246064906A000F041F904E02246034922
:103F800003A000F03BF9014870BD0000E0080020EC
:103F9000616469733136343438627269646765000C
:103FA00070B505460C461A202080FCF7A1FC01489C
:103FB00070BD00004400002002460C20088001482B
:103FC000704700003400002070B504460D46E888B4
:103FD000012804D029462046FFF722FF1EE094F86E
:103FE0007402012804D0022803D0032810D109E06C
:103FF00000BF0020A060012204F108012046FFF765
:104000003CFF0AE00122211D2046FFF736FF04E0B5
:1040100029462046FFF704FF00BF00BF70BDF8B57A
:1040200004460E467088001206286ED006DC012871
:1040300010D0022816D0032870D127E0072874D0AA
:104040000F28F9D1207CD4F88812CA6969469047B4
:1040500005467FE0207CD4F888120A6869469047BC
:10406000054677E0207C40B9D4F88C02816A684626
:10407000884705460221697007E0D4F88C02C16ABE
:104080006846884705460221697063E0B0780628D3
:1040900034D2DFE800F0030B131B232B207CD4F871
:1040A00088124A686946904705462CE0207CD4F87F
:1040B00088128A6869469047054624E0207CD4F837
:1040C0008812CA686946904705461CE0207CD4F8EF
:1040D00088120A6969469047054614E0207CD4F8A6
:1040E00088124A696946904705460CE0207CD4F85E
:1040F00088128A6969469047054604E031462046A1
:10410000FFF78EFEF8BD00BF24E0207C40B9D4F854
:104110008C02416B6846884705461BE015E004E0C9
:1041200031462046FFF77CFEECE7207C40B9D4F80E
:104130008C02016B6846884705460721697009E0D3
:1041400031462046FFF76CFEDCE731462046FFF79C
:1041500067FED7E700BFBDF8000088B1F08878B1EE
:10416000F088BDF80010884202DDBDF8000000E0D4
:10417000F0880090BDF8002029462046FFF77DFE1C
:10418000F08810B92046FFF789FE00BFBAE7014664
:10419000002002E0421CD0B2491C0A78002AF9D162
:1041A000704770B504460D4694F87402012804D097
:1041B000022803D003281AD101E000BF00BFE8881D
:1041C000022804D029462046FFF72AFE14E00120E9
:1041D000E060D4F87C0218B1E06840F00200E060D2
:1041E000022204F10C012046FFF747FE04E02946B5
:1041F0002046FFF715FE00BF00BF70BD2DE9F0415E
:1042000004460D4617460026FCB12046FFF7BFFFC7
:10421000022101EB400038803A783046711CCEB262
:104220002A5403223046711CCEB22A540AE014F8F4
:10423000012B3046711CCEB22A5400223046711C2C
:10424000CEB22A5420780028F1D1BDE8F081014691
:10425000002031B1012906D0022906D0032908D156
:1042600005E0002007E0022005E0012003E0022035
:1042700001E0022000BF00BF704770B504460D4644
:1042800016460CB9022070BDD4F88C0210B1002083
:10429000C4F88C020DB1C4F88852012084F874026D
:1042A0002670204600F014F90020ECE72DE9F041DB
:1042B00004460D46002600272946D4F89802FCF74C
:1042C00008FE06463046FFF7C2FF07463846BDE8FF
:1042D000F0812DE9F04104460D46002600272946CD
:1042E000D4F89802FCF7C0FD06463046FFF7AFFF52
:1042F00007463846BDE8F0812DE9F04104460E46F8
:104300001746002E64D104F11405D4F86C0202287B
:1043100048D1D5E90301884210D9D5E90301401AF3
:10432000E860A88982B239462046FFF76DFD002378
:104330001A461946204600F039F93EE02969A86876
:10434000B0FBF1F201FB1200B8B92969A8688842F4
:1043500013D3A868D4F8701288420ED200221146F6
:104360002046FFF751FD0020C4F8700200231A46D2
:104370001946204600F01AF91FE0D4F88C02C068F4
:1043800040B194F87402032804D1D4F88C02C168B7
:10439000204688478021204600F0B4F92046FFF7E8
:1043A0005FFD0AE0D4F86C02042802D0D4F86C0255
:1043B00018B98021204600F0A5F994F87802012868
:1043C00018D1204600F0FEF9002084F8780211E0B0
:1043D000D4F88C02406950B194F87402032806D1D5
:1043E000D4F88C02314642692046904702E0022010
:1043F000BDE8F0810020FBE72DE9F04104460E46C0
:104400001746BEBB04F5A075D4F86C02032825D16D
:10441000D5E90301884210D9D5E90301401AE860C3
:10442000D5E90301884201D2E86800E0286982B238
:1044300039462046FFF7DCFC2FE0D4F88C020069F7
:1044400040B194F87402032804D1D4F88C020169B5
:10445000204688472046FFF721FD1EE0D4F86C0275
:1044600005281AD10020C4F86C020021204600F073
:1044700049F912E0FFE7D4F88C02806950B194F852
:104480007402032806D1D4F88C0231468269204692
:10449000904702E00220BDE8F0810020FBE70146E2
:1044A0000020704710B50446012084F87402217979
:1044B000D4F88C02426820469047002010BD70B5A9
:1044C00004460D462946D4F89802FCF740FD70BD1D
:1044D00010B50446207800282AD11648C0F80044B8
:1044E000C4F898024FF0A0401249086006204860C6
:1044F00002211048C1600021016102218161002177
:10450000C16101624162C1620163FDF7E6F808B171
:10451000FCF7EDF980210748FCF74CFC4022002114
:104520000448FCF74CFC802201210248FCF747FCC0
:10453000002010BDDC04002010B50246D2F89832ED
:1045400001F08000802809D101F07F00C0EBC00499
:1045500003F13C0000EB8400807810BD01F07F0087
:10456000C0EBC00403F5FE7000EB84008078F4E734
:104570000246002070470246002070472DE9F047B0
:1045800004460F4615461E464FF00008C1462B460E
:1045900032463946D4F89802FCF7E4FC804640469F
:1045A000FFF755FE81464846BDE8F0872DE9F04704
:1045B00004460D4616461F464FF00008C1463B46CE
:1045C00032462946D4F89802FCF712FD8046404650
:1045D000FFF73DFE81464846BDE8F08710B504462A
:1045E0004023002211462046FFF7C8FF01214FF467
:1045F000A270015140214FF4A870015140230022C4
:1046000080212046FFF7BAFF0121A16140216162AC
:10461000012084F874020020C4F86C026060C4F8C1
:104620007C02D4F8900228B12179D4F88C02426837
:1046300020469047002010BD014691F8750281F890
:1046400074020020704710B5044694F874020328E1
:1046500008D1D4F88C02C06920B1D4F88C02C169A9
:1046600020468847002010BD024611740020704784
:104670002DE9F04104460D46002600272946D4F8CE
:104680009802FDF759F906463046FFF7E0FD074668
:104690003846BDE8F08170B504460D46294604F55C
:1046A000207000F073F80120C4F86C0240F28620FC
:1046B000005BC4F8700294F8800200F01F0020B183
:1046C000012808D0022812D10BE004F52071204601
:1046D00000F041F913E004F52071204600F0A8FA3B
:1046E0000DE004F52071204600F086F907E094F80B
:1046F000800200F08001204600F004F800BF00BFF7
:10470000002070BD2DE9F04104460D46002600272B
:104710002946D4F89802FCF797FC06463046FFF786
:1047200096FD07463846BDE8F08170B50446002581
:104730000026D4F89802FDF723F905462846FFF72E
:1047400086FD0646304670BD014691F8740281F838
:104750007502042081F87402002070472DE9F047AB
:1047600004460D4616461F464FF00008C1463B461C
:1047700032462946D4F89802FCF7ABFC8046404606
:10478000FFF765FD81464846BDE8F0870A7802706C
:104790004A7842708B78CA7803EB022242800B7908
:1047A0004A7903EB022282808B79CA7903EB0222D9
:1047B000C28070470246002011B1C2F88C1200E09E
:1047C0000220704701460020704770B504460D4630
:1047D000A88810BBE88800BB688880281DD2A8780C
:1047E00000F07F0694F87402032804D1294620467D
:1047F000FFF716FB15E084F8766231462046FFF796
:1048000037FF2046FFF74AFB1EB1022084F87402EE
:1048100007E0012084F8740203E029462046FFF7F0
:10482000FFFA70BD70B504460D460226D4F88C021E
:1048300038B1D4F88C02294602682046904700B966
:104840000026304670BD000070B504460D46A878BD
:104850003649087008460078012804D929462046C0
:10486000FFF7DEFA60E094F87402022802D0032811
:104870004FD11CE02D480078A8B12C48007860602A
:10488000032084F87402294801782046FFF7CAFF04
:10489000022804D129462046FFF7C2FA70BD2046FF
:1048A000FFF7FCFA02E02046FFF7F8FA3BE01F486A
:1048B000007870B9022084F874021C4800786060A7
:1048C0001A4801782046FFF769FA2046FFF7E6FA12
:1048D0001EE0164909786068884216D02179204682
:1048E000FFF75CFA114800786060104801782046B4
:1048F000FFF798FF022804D129462046FFF790FAD7
:10490000CCE72046FFF7CAFA02E02046FFF7C6FAD6
:1049100009E029462046FFF783FA0448017820463B
:10492000FFF73CFA00BF00BF00BFB7E780000020E0
:1049300070B505460C466088012804D1C5F87C0294
:104940002846FFF7ABFA70BD10B504462046FFF7C6
:10495000ECFE002010BD70B505460C460026207800
:1049600000F0600060B1202802D040283CD100E077
:1049700000BFD5F88C02214682682846904738E06F
:1049800060780A2829D2DFE800F01923281E280AB7
:104990000528140F21462846FFF741FB22E0214657
:1049A0002846FFF712FF1DE021462846FFF74CFF7F
:1049B00018E021462846FFF707FB13E0214628466A
:1049C000FFF7EFFB0EE021462846FFF7B1FF09E0B5
:1049D00021462846FFF7EDF904E021462846FFF777
:1049E0001FFA00BF00BF04E021462846FFF718FA6F
:1049F00000BF00BF304670BD2DE9F04105460E46B0
:104A00004FF000083479307800F0600060B1202861
:104A100002D0402871D100E000BFD5F88C023146A9
:104A200082682846904700E1307800F06000202836
:104A300009D1D5F88C0231468268284690478046D5
:104A40004046BDE8F081707800285ED001282FD064
:104A5000032876D195F87402022802D0032820D1C9
:104A600010E054B1802C08D021462846FFF74AFEBA
:104A700080212846FFF746FE03E031462846FFF72F
:104A8000CFF913E0708840B93CB1802C05D0F08894
:104A900018B921462846FFF735FE2846FFF7FEF9EC
:104AA00004E031462846FFF7BBF900BF00BFB5E080
:104AB00095F87402022802D003281FD110E054B1E7
:104AC000802C08D021462846FFF71CFE802128466E
:104AD000FFF718FE03E031462846FFF7A1F912E080
:104AE000708848B904F07F0018B121462846FFF7C6
:104AF000DDFB2846FFF7D2F905E091E03146284674
:104B0000FFF78EF900BF00BF88E095F87402022815
:104B100002D0032876D126E034B1802C04D031466F
:104B20002846FFF77DF972E004F08000802809D163
:104B300004F07F0000EB800105F1140000EB810020
:104B400008E066E004F07F0000EB800105F5A0704E
:104B500000EB8100074600203860022239462846D3
:104B6000FFF78BF953E004F0800080280ED104F0A9
:104B70000F0000EB800105F1140000EB810040689C
:104B800098B931462846FFF74BF940E004F00F0092
:104B900000EB800105F5A07000EB8100406820B9B2
:104BA00031462846FFF73CF931E004F080008028C8
:104BB00008D104F07F0000EB800105F1140000EB48
:104BC000810007E004F07F0000EB800105F5A07094
:104BD00000EB810007460CB1802C02D10020386028
:104BE00009E021462846FFF7A7FC10B101203860F4
:104BF00001E000203860022239462846FFF73DF9DF
:104C000005E0FFE731462846FFF70AF900BF00BF7D
:104C100004E031462846FFF703F900BF00BF04E077
:104C200031462846FFF7FCF800BF00BF404608E7C2
:104C300070B505460C460026207800F0600030B1C3
:104C4000202802D040282AD100E000BF00BF95F8FC
:104C50007402012804D0022803D0032818D101E0EF
:104C600000BF00BF207901280DD8D5F88C0221465D
:104C70008268284690470646E08840B93EB92846F3
:104C8000FFF70CF903E021462846FFF7C9F804E0D6
:104C900021462846FFF7C4F800BF00BF04E02146C4
:104CA0002846FFF7BDF800BF00BF002070BD000020
:104CB00070B504460B4622461978587801282CD145
:104CC00040F61C0080581D7805F00F060125B54000
:104CD000ADB2284340F61C05A85002F5106000EB69
:104CE0004110006800F40040F0BB1889C0F30A00CE
:104CF000DD7840EA854040EA815040F0805040F441
:104D0000004002F5106505EB41152D68284302F5BA
:104D1000106505EB411528602DE040F61C00805819
:104D20001D7805F00F060125B540144E06EA05452D
:104D3000284340F61C05A85002F5306000EB4110F6
:104D4000006800F4004078B91889C0F30A00DD78E3
:104D500040EA854040F0805040F4004002F5306564
:104D600005EB41152D6800E005E0284302F53065AC
:104D700005EB41152860002070BD00000000FFFF1A
:104D8000024611464FF410604058C30ADB024FF44C
:104D90001060435040F60800405800F00600042818
:104DA00007D14FF41060405840F003034FF41060F7
:104DB000435040F60400405840F4807340F604002D
:104DC00043500020704700000FB470B504460A98A5
:104DD000012817D1A06B20F48030A063E068174948
:104DE0000840E060E06820F44010E060119801287D
:104DF00003D1E06840F48010E060204600F020F825
:104E000005460BE0E06840F04000E060204600F01E
:104E100017F80546A06B40F48030A063089801287D
:104E200007D1A06840F00600A060A06840F0200014
:104E3000A060284670BC5DF814FB0000BFFFBDFFFA
:104E40000146002200BF501C02460F4B984201D978
:104E500003207047086900F000400028F3D00022CA
:104E6000086940F00100086100BF501C0246064B73
:104E7000984201D90320ECE7086900F001000028FE
:104E8000F3D100BFE5E70000400D030070B5044614
:104E90000B4621461A785878012826D140F63C0066
:104EA00040581D7805F00F060125B540ADB2A84366
:104EB00040F63C05685040F61C0040581D7805F04F
:104EC0000F060125B540ADB2A84340F61C05685059
:104ED00001F5106000EB421000681A4D284001F502
:104EE000106505EB4215286029E040F63C0040586B
:104EF0001D7805F00F060125B540134E06EA05455D
:104F0000A84340F63C05685040F61C0040581D7808
:104F100005F00F060125B5400B4E06EA0545A843EE
:104F200040F61C05685001F5306000EB4210006847
:104F3000064D284001F5306505EB4215286000203C
:104F400070BD0000007833EC0000FFFF0078F3EF45
:104F500070B50446254640F60400405920F0020191
:104F600040F6040041510320FBF7DCFC002070BD3B
:104F700070B50446254640F60400405940F0020151
:104F800040F6040041510320FBF7CCFC002070BD2B
:104F90000FB4F0B5064600273546002405E0002191
:104FA00006F5827040F82410641C0F2CF7D310987B
:104FB00060B9B06B20F40010B063306840F040007E
:104FC0003060306840F08000306003E0B06B40F447
:104FD0000010B0630020C5F8000ED5F80008C5F831
:104FE00000080B9801280BD1089820B90021304601
:104FF00000F0CCFC17E00121304600F0C7FC12E0C5
:105000000B9803280BD1089820B90021304600F0F6
:10501000BDFC08E00121304600F0B8FC03E00321AC
:10502000304600F0B3FC1021304600F0FFFB00B129
:105030000127304600F0E4FB00B1012700214FF4C6
:1050400001604151001D415140F61C0041510024B6
:105050002EE005F5106000EB4410006800F0004001
:10506000B0F1004F10D13CB94FF0006105F5106070
:1050700000EB441001600DE04FF0904105F5106029
:1050800000EB4410016005E0002105F5106000EB25
:1050900044100160002105F5106000EB441001612F
:1050A0004FF67F3105F5106000EB44108160641C01
:1050B0000698A042CDD800242EE005F5306000EB24
:1050C0004410006800F00040B0F1004F10D13CB92E
:1050D0004FF0006105F5306000EB441001600DE019
:1050E0004FF0904105F5306000EB4410016005E0A1
:1050F000002105F5306000EB44100160002105F54A
:10510000306000EB441001614FF67F3105F53060EF
:1051100000EB44108160641C0698A042CDD84FF487
:105120000160405920F480714FF4016041510998A9
:10513000012809D114494FF40360415140591349E2
:1051400008434FF4036148510020B0616FF0804084
:105150007061099818B9B06940F01000B061B06989
:105160000B490843B0610C9818B1B06940F00800D1
:10517000B0611098012803D1B06906490843B061B5
:105180003846F0BC5DF814FB00018000030001000C
:1051900000383C80040000400146886820F001008F
:1051A0008860002070470000F0B505460B461446A5
:1051B0002A461978587801287DD1586920BB02F514
:1051C000106000EB41100069664E304002F5106639
:1051D00006EB4116306102F5106000EB41100069EA
:1051E00040F4002602F5106000EB4110066102F564
:1051F000106000EB41100069C60CF60402F5106067
:1052000000EB4110066137E002F5106000EB411041
:105210000069C60CF60402F5106000EB411006614F
:1052200002F5106000EB411000694E4E304002F56F
:10523000106606EB411630619E685869B04201D98C
:105240009868586102F5106000EB4110006940F465
:10525000002602F5106000EB4110066102F51060B7
:1052600000EB411000695E69C6F31206304302F597
:10527000106606EB41163061012C08D11869A0B107
:1052800002F5106000EB41101E6946610DE058699F
:1052900058B140F6340080581E7806F00F070126FA
:1052A000BE40304340F63406B05002F5106000EBCB
:1052B0004110006800E007E040F0044602F510608D
:1052C00000EB411006604BE002F5306000EB41104E
:1052D0000069C60CF60402F5306000EB411006616F
:1052E00002F5306000EB411000691E4E304002F5BF
:1052F000306606EB41163061586908B1986858610C
:1053000002F5306000EB4110006940F4002602F520
:10531000306000EB4110066102F5306000EB411097
:1053200000699E68C6F31206304302F5306606EB4C
:1053300041163061012C07D1D86828B102F53060E0
:1053400000EB4110DE68466102F5306000EB411071
:10535000006840F0044602F5306000EB4110066042
:105360000020F0BDFFFF07E070B503460C4619466C
:105370001D6C1848854209D94FF43060405800F040
:105380000040B0F1004F01D1002070BD0026C1F8EF
:10539000106BD1F8100B40F40026C1F8106BD1F857
:1053A000100B40F01806C1F8106BD1F8100B40F04C
:1053B000C046C1F8106B012C09D1C1F8142B4FF471
:1053C0003060405840F080264FF430604650002056
:1053D000DBE700000A30544F30B504460B46224646
:1053E0001978587801281ED102F5106000EB4110A1
:1053F000006820F4001502F5106000EB4110056014
:10540000D878032802D0D87802282AD102F5106073
:1054100000EB4110006840F0805502F5106000EB91
:10542000411005601DE002F5306000EB411000689E
:1054300020F4001502F5306000EB41100560D878CB
:10544000032802D0D87802280BD102F5306000EB97
:105450004110006840F0805502F5306000EB4110CB
:105460000560002030BD30B504460B462246197851
:105470005878012821D102F5106000EB4110006836
:1054800000F0004060B959B102F5106000EB411026
:10549000006820F0804502F5106000EB41100560C7
:1054A00002F5106000EB4110006840F4001502F5B1
:1054B000106000EB4110056020E002F5306000EB69
:1054C0004110006800F0004060B959B102F5306049
:1054D00000EB4110006820F0804502F5306000EBE1
:1054E0004110056002F5306000EB4110006840F4A7
:1054F000001502F5306000EB41100560002030BD62
:105500002DE9F84381460E4617464D4634787078AB
:1055100001287DD1706920BB05F5106000EB4410B7
:105520000069B249084005F5106101EB44110861BA
:1055300005F5106000EB4410006940F4002105F50A
:10554000106000EB4410016105F5106000EB4410A1
:105550000069C10CC90405F5106000EB441001613D
:1055600055E005F5106000EB44100069C10CC9045A
:1055700005F5106000EB4410016105F5106000EBCB
:10558000441000699949084005F5106101EB441188
:105590000861B16870690844401EB0FBF1F093499E
:1055A000C94301EAC04005F5106101EB44110969E6
:1055B000084305F5106101EB4411086105F5106021
:1055C00000EB441000697169C1F31201084305F54D
:1055D000106101EB44110861F078012817D105F53D
:1055E000106000EB4410006920F0C04105F5106028
:1055F00000EB4410016105F5106000EB44100069F8
:1056000040F0005105F5106000EB4410016100E02E
:1056100055E0012F08D13069B8B105F5106000EBF5
:1056200044103169416110E0F07801280DD07069B3
:1056300058B140F634004059317801F00F02012191
:105640009140084340F634014851F07801281ED1BA
:1056500040F60800405900F4807060B905F510600C
:1056600000EB4410006840F0005105F5106000EBBD
:10567000441001600BE005F5106000EB4410006879
:1056800040F0805105F5106000EB4410016005F515
:10569000106000EB4410006840F0044105F5106014
:1056A00000EB44100160F078012807D10097B08A20
:1056B00083B232784846F16800F0E6F993E005F5E8
:1056C000306000EB44100069C10CC90405F530607E
:1056D00000EB4410016105F5306000EB44100069F7
:1056E0004249084005F5306101EB441108617069D9
:1056F000D0B905F5306000EB44100069B168C1F322
:105700001201084305F5306101EB4411086105F50C
:10571000306000EB4410006940F4002105F5306072
:1057200000EB4410016126E0B16870690844401E36
:10573000B0FBF1F01FFA80F805F5306000EB441083
:1057400000692A49C94301EAC841084305F53061A7
:1057500001EB4411086105F5306000EB441000696D
:10576000B16801FB08F1C1F31201084305F530618E
:1057700001EB44110861012F07D1F06828B105F54C
:10578000306000EB4410F1684161F07801281ED1CF
:1057900040F60800405900F4807060B905F53060AB
:1057A00000EB4410006840F0005105F5306000EB5C
:1057B000441001600BE005F5306000EB4410006818
:1057C00040F0805105F5306000EB4410016005F5B4
:1057D000306000EB4410006840F0044105F5306093
:1057E00000EB441001600020BDE8F883FFFF07E0F4
:1057F0000146886840F00100886000207047000082
:10580000014600221020086100BF501C0246064BD2
:10581000984201D903207047086900F01000102851
:10582000F3D00020F7E70000400D030010B502465A
:105830000023202040EA8110106100BF581C03465D
:10584000054CA04201D9032010BD106900F02000D2
:105850002028F3D00020F7E7400D030010B50146E3
:105860000B4640F60804E45804F006020AB900208A
:1058700006E0022A01D0062A01D1032000E0002020
:1058800010BD0146486900F00100704701460B4613
:1058900040F61800C258001DC058024090B2704730
:1058A00001460B4640F61800C258001DC058024081
:1058B000100C704770B5024613464FF40166F45859
:1058C00040F63406F55801F00F0625FA06F606F004
:1058D000010644EAC61403F5106606EB4116B668E5
:1058E00006EA040070BD10B50246134603F53064A5
:1058F00004EB4114A06840F61404E458204010BDA5
:10590000014648698A6910407047F0B503461E4653
:105910000846D71CBD08002405E04FF48057BF5946
:105920000760001D641CAC42F7D3F0BD70B504469F
:105930000D46E06820F0C040E060012D04D1E06831
:1059400040F00050E06007E025B9E06840F080409A
:10595000E06001E0012070BD3220FAF7E3FF002093
:10596000F9E710B502460B461146D1F8000820F4BD
:10597000FE60C1F80008D1F800084FF4FE6404EAA4
:1059800003142043C1F80008002010BD024613464E
:10599000D3F800080843C3F800080020704700004F
:1059A00030B503461446032C49D12D48814204D317
:1059B0002C48814201D20F2245E02A48814204D37B
:1059C0002948814201D20E223DE02748814204D37A
:1059D0002648814201D20D2235E02448814204D379
:1059E0002348814201D20C222DE02148814204D378
:1059F0002048814201D20B2225E01E48814204D377
:105A00001D48814201D20A221DE01B48814204D375
:105A10001A48814201D2092215E01848814204D374
:105A20001748814201D208220DE01548814204D373
:105A30001448814201D2072205E0062203E00CB996
:105A4000092200E00922D86820F47050D860D86894
:105A50004FF4705505EA82252843D860002030BDF8
:105A6000C0ACD800C0E1E4000024F400807306015B
:105A7000A0491A01002D310140A44C0100366E01ED
:105A800020ABA6010048E8012DE9F04304460D468D
:105A9000DDF81CC0A0462E46BCF1000F0FD1D81C6B
:105AA0008708002109E008F5805000EB0230D6F8A5
:105AB0000090C0F80090361D491CB942F3D3002075
:105AC000BDE8F08300BFFEE70FB4084B10B504A992
:105AD00002AA039800F0FAF8044602A9002000F098
